:100000000020002055010000810100008101000056
:1000100081010000810100008101000081010000D8
:1000200081010000810100008101000081010000C8
:1000300081010000800100008101000081010000B9
:1000400081010000353800004125000081010000D9
:100050001D38000081010000993800008101000076
:100060008101000081010000810100008101000088
:100070009D2C000081010000810100008101000031
:100080008101000081010000810100008101000068
:100090008101000010B5064C2378002B07D1054BD9
:1000A000002B02D0044800E000BF0123237010BDE4
:1000B000A80000200000000030670000044B10B5CD
:1000C000002B03D00349044800E000BF10BDC04628
:1000D00000000000AC00002030670000164B002B31
:1000E00000D1144B9D46402292029A1A924600215A
:1000F0008B460F461348144A121A04F086FC0F4B25
:10010000002B00D098470E4B002B00D098470020C2
:10011000002104000D000D48002802D00C4800E02A
:1001200000BF04F045FC2000290003F0EBF904F0C7
:1001300029FCC0460000080000200020000000004C
:1001400000000000A8000020840A00200000000039
:1001500000000000064880470649074A074B9B1AE3
:1001600003DD043BC858D050FBDCFFF7B7FF0000AD
:10017000690200003C67000000000020A800002089
:10018000FEE7C0460048704700366E0110B5244AAD
:100190002449D36A0B40802149018B423CD014D8BA
:1001A000802109018B4223D0E021D368C9000B4094
:1001B000802189008B4229D01CD8002B2AD00139FC
:1001C000FF398B4224D0002008E0802189018B4236
:1001D0000BD08021C9048B42E6D113481168C903B2
:1001E000490F013103F098FB10BD104B1868F5E77B
:1001F0000F4BFBE7C02189008B4205D00131FF3155
:100200008B42E0D10B48E9E70B48E7E70B48E5E70D
:100210000B48E3E70B48E1E780200002DEE7C04639
:1002200000800C40003C000400366E0108000020F5
:1002300004000020406F4001809FD500C0D8A70077
:1002400040B56400804F120010B5FFF79FFF0F22EA
:10025000034B5B681340D840024B186010BDC0468A
:1002600000800C4000000020014A024B9A60704759
:100270000000000000ED00E0802000027047FA203E
:1002800080007047014B18687047C0460800002086
:1002900010B5084B1C78002C01D0002010BD0122A5
:1002A0001A70054BE358002BF7D098470434002808
:1002B000F7D0F3E7F40000200C00002010B50A4B43
:1002C0000C001B78002B0BD000280BDC2C2201002B
:1002D0005143064B2000591804F08EFB002010BD3E
:1002E0000348FCE70348FAE7F4000020C4000020BC
:1002F000050011800200118010B50B4B01001B7826
:10030000002B0DD0094A1368002B0BDC581C106021
:100310002C2253430648C01804F06EFB002010BD89
:100320000448FCE70448FAE7F4000020F00000204D
:10033000C4000020050011800100118030B5802923
:100340000DD1084912010C68074DA2180020AA42DD
:1003500002D91860054830BD1C600A60FBE70448FC
:10036000F9E7C04614000020F508002001001180C4
:1003700002001180004870470400118010B500F0A1
:100380001FF900F0D9F8002010BDF8B5047C1D005D
:10039000013C631E9C410E0000276442E4B2380118
:1003A0003018AF4201D10020F8BD1022210004F026
:1003B0002CFB0137F3E7F7B500200F000A2100F00E
:1003C0002DF9062000F001F9089B02215D1C6B4607
:1003D0009E1D0123ADB22A02134330003380002456
:1003E00000F0CCF8099B200138189C4208D102206B
:1003F00000F0EBF80A21002000F01CF90020FEBDFF
:10040000102100F0BBF8099B013BA34208D1012356
:100410005B42022130003380013400F0AFF8E1E7A5
:10042000FF226B1C1B191B021343F2E710B50321BB
:10043000052000F00BF910BD10B5080008210028B8
:1004400004D0002000F0EAF8002010BD00F0F2F81F
:10045000FAE7000010B58CB000F0B2F800F06CF8CC
:1004600000F0C4F800230C211A00042000F0C8F8A2
:1004700000230A211A00042000F0C2F800230A21F8
:100480001A00180000F0BCF8002308211A00180018
:1004900000F0B6F8002303211A00052000F0B0F8A0
:1004A000402200211C4800F095F8041E31D11B4B5E
:1004B00001A80193012303747F334360C360836009
:1004C000174B44744361174B8361174BC361174B40
:1004D0000362174B4362174B8362FFF70DFF041E45
:1004E00017D1082100F09AF80A21200000F096F8B0
:1004F000062000F06AF86B46981C04230221038052
:1005000000F03CF8022000F060F80A21200000F022
:1005100091F820000CB010BD2D040000985200008E
:10052000390400003D03000075030000B70300001C
:100530008B0300007D03000030B587B06C462200BD
:100540000A4B23CB23C223CB23C2094D01210948E7
:1005500001F09AF9084B28002100A36001F0ACFFDC
:100560000A2300206B6507B030BDC046B0520000C2
:1005700000C0004000320400E0C8100070B5012641
:1005800004000D00002D06D120230C490A691A42EF
:10059000FCD0002070BD012D01D0344206D021785E
:1005A000064801F0C1FF013D0134EBE72188034813
:1005B00001F0C0FF023D0234E4E7C04600C0004045
:1005C00010B500F01DF9002010BD10B500F0EEF9D7
:1005D000002010BD10B503F063F9431E9841024B93
:1005E0004042184010BDC0460200138010B50121E2
:1005F000024801F049F9002010BDC0460082040005
:1006000010B5141E05D1C0B2042201F06FFC200009
:1006100010BD0148FCE7C046010013800123C2B2AF
:1006200024208B405043024A801803610020704709
:10063000006000400123C2B224208B405043024A94
:100640008018436100207047006000400123C2B25F
:1006500024208B405043024A801883610020704759
:100660000060004030B585B0040001211D4801F054
:100670000BF91D4B22689A4232D101211B4801F02F
:1006800003F96179207901230A2201F02FFCE17935
:10069000A07901230A2201F029FC012263790921B2
:1006A0009A4024232079124D4343124818185B19AD
:1006B000013902601A600029FAD10323227A2068E6
:1006C0001202134383636A46012313705370236934
:1006D00069460293E3680193237D137301F080FC64
:1006E00005B030BD4081040000A0004000B204000D
:1006F000146000401060004070B5050001F03AFE43
:10070000054C012802D1013C002C00D170BD28000D
:1007100001F082FCF5E7C046E193040070B588B0B3
:10072000150003AA11800421518001A90B70022435
:100730000123049102AE1381148211000696FFF783
:10074000DBFF002803D000232B6008B070BD03211D
:10075000337872781B028A439B182B602000F4E7E1
:10076000F8B51C00E52306000F001500FFF7D6FFC3
:10077000022802D001204042F8BD2A680B4B390004
:1007800053430B4A5B0B9B182B602200E023300085
:10079000FFF7C4FF0228EDD12268064B0020534327
:1007A000054A5B139B182360E6E7C046093D00003D
:1007B00090E8FFFFCD550000FE48FFFF30B589B03F
:1007C0001400042203AB198069465A800B4A049135
:1007D0000A8002221A8106321A82190001AD06959A
:1007E000FFF78AFF0023984205D10133002C02D085
:1007F0002B7823700123180009B030BDFCC9FFFF1E
:10080000F0B58DB0032261490BA804F0F5F8002281
:100810005F4C236C02925B0705D401215D4801F017
:1008200033F8012302935C4801F06EF84023E26A3A
:1008300003211A4007905848019201F0DBF957480C
:1008400000F070FF802108904900544800F0A6FF96
:10085000A36D002201240392234204D121004F48BA
:1008600001F012F8039401F08DFA01264C4C099026
:100870002568354000D16BE0236880210493A3688C
:10088000484A0593E368E569069300232360E36122
:100890000733A3617A33FF334901D15000230BA8FA
:1008A000837001F0C1FD404B8022190052011A6093
:1008B0001A6852001A600AD0606862689042FCD0E0
:1008C00060680A68013AFDD862689042F0D0364B01
:1008D000092118001A6852081A601A68013900299B
:1008E00001D0520839D1099801F050FA002E48D0B1
:1008F00008992A4800F052FF012001F08BFD059B6A
:100900000020A360069BE360049B2360E56101F087
:1009100081FD039B002B03D00021204800F0B4FF91
:10092000079B032B03D019001B4801F063F9019BBF
:10093000002B04D11A001900012001F025F9029BB7
:10094000002B03D00021134800F09EFF0DB0F0BD36
:100950000695059504952E00A0E71F6817431F60B4
:100960006768BC466768BC45FCD06768BC460768DA
:10097000013FFDD86768BC45B0D007689743076062
:10098000ACE7300001F03CFDC3E7C046C8520000B0
:1009900000800C40D0233E0002001E0080061200A2
:1009A0000000084000E100E01800002008490300B2
:1009B000002B0CD0013B88221202003253430A68FC
:1009C000D80AD20A5043800901D00138FDD87047B7
:1009D00018000020044B1A780123002A02D0034B90
:1009E000036000231800704730090020F60800203B
:1009F000F0B506000C4804780120002C13D00B4CF5
:100A0000B51827880330BD420DDC6788CD18BD427C
:100A100009DC0130002A06D0002B04D00020A6807B
:100A2000E18022816381F0BD30090020F6080020BA
:100A3000F0B589B00193644B06001B780592012044
:100A4000002B23D0614B1B68002B1FD0604A5589B7
:100A500014896D1A6C43019DA41BAC4200D2AFE017
:100A60005C4D6C7C002C00D0ACE0AD68ED080695C8
:100A7000D288049089188AB203922A0003994A43C3
:100A80009B180293019B002B02D1180009B0F0BD06
:100A90004F4B1D89019BAD1B9D4200D91D00019B41
:100AA0005B1B01934B4B1B7C012B0ED8484A908853
:100AB0000722301880B2104203D1144201D195426E
:100AC00043D8444A4619B04216D31F220398039BC9
:100AD000024004984049904002005B119B00585826
:100AE000002602435A50069A039B9446013303930F
:100AF000029B63440293C5E70599E310C95C072391
:100B000023401941157C049B1940C308012D0AD1CB
:100B100000290CD10299049DCB18072101408D407A
:100B20001978A9430CE0002DF4D10029F2D10299E3
:100B3000049DCB18072101408D4029001D782943D1
:100B40000130197080B20134BDE7029AC708EE087F
:100B5000D719F20007922A00083A9446012B29D1AE
:100B6000059BE11059183200380003F045FFF300EF
:100B7000E418079BED1AA8D0049BBE19AB40059F53
:100B8000E110795C134FDBB2581E3F7CC0B2327863
:100B90000140012F11D15B421A400A43327064199F
:100BA00093E7059AE310D35CC108DB4308307B541C
:100BB00080B208346045F4D9DBE702438A43EDE7AD
:100BC000032063E70A2061E7300900203409002090
:100BD000F608002004090020100A0020F0B587B0B4
:100BE0000593504B04001B780120002B18D04E4B6E
:100BF0001B68002B14D04D4A557C002D00D08EE090
:100C00009268D20803924A4A039FD28802908918B8
:100C10008AB257430192DF190D9B002B02D11800B5
:100C200007B0F0BD424A0D9B15892D1B9D4200D98E
:100C30001D000D9B5B1B0D933C4B197C01292DD88E
:100C4000059B58424341DBB25E1EF6B2012901D03A
:100C50005E42F6B290882418A4B2072D32D86519E6
:100C6000002E19D1A54219D907220299224091409C
:100C7000E308FB181A7801348A431A70A4B2F1E72A
:100C800007220299224091400A00E308FB181978D4
:100C900001340A431A70A4B2A542F1D81F22019868
:100CA000019B024002982349904002005B119B0087
:100CB0005858002402435A50019B01330193039B6F
:100CC000FF18A9E707222240E4083C19002A0CD0AB
:100CD000029B20789340DBB25942013B31400340F4
:100CE0000B43083A2370AD180134EB0804930BD082
:100CF0001A002000310003F088FEEB08DB00ED1A3B
:100D0000049BE418002DC9D0029B2278AB40DBB2D3
:100D10005942013B0A401E4016432670BEE70A2096
:100D20007EE7C04630090020340900200409002075
:100D3000F6080020100A002070B504000B480123BB
:100D40008569002D0FD00A4EC26833004168A8475C
:100D500032680B23002A06D02260FF2110220548AA
:100D600003F053FE0023180070BDC04604090020A4
:100D700034090020100A0020F7B50024184D2B7804
:100D8000A34229D1FFF784FA041E25D1154E310064
:100D9000FFF794FA041E1FD1134F3800FFF7CCFF62
:100DA000041E19D13B68002B18D0F368716898B203
:100DB00003000E4A8FB25080508117809480D480F7
:100DC000178101227B432A702100019300942300A4
:100DD00022002000FFF702FF2000FEBD0B24FBE7EE
:100DE000300900200409002034090020F608002002
:100DF000F0B585B0244B01259968CB080293234BAD
:100E00001C6800231F002048FE18C268964209D3C0
:100E1000002B2BD1102200211C4803F0F6FD0020EE
:100E200005B0F0BD012222400AD001331F21FA187B
:100E300064080A42E7D1154AA9008C580135E2E757
:100E4000002B11D00299794303911149096801934C
:100E50008C46039900976144076A4368B8470028A5
:100E6000DED1771C0300E1E70137DFE70299084A8A
:100E700079431268019300975118046A436800226D
:100E8000A0470028C6D0CBE704090020100A0020A4
:100E90003409002010B503000520002B06D00021E6
:100EA0001A68080053881288FFF7A2FD10BD73B5B9
:100EB00005000520002D13D028006C68FFF7EAFF1D
:100EC00000280DD12D68230A2E896989220C7143CF
:100ED000E4B20191DBB2D2B200940100FFF77EFED2
:100EE00076BD10B502000520002A0DD0D36898B257
:100EF000136999B293695269013301325B1A121A6C
:100F00009BB292B2FFF774FD10BDF8B5052300281F
:100F10001DD000291BD00E688C68013BA64216DA52
:100F20004D68CA68954212DA013B002E0FDB002D96
:100F30000DDB01680F88BC4209DA49888A4206DA6B
:100F4000C660056144618261FFF7CBFF03001800B2
:100F5000F8BD000030B587B00524051E1CD0002365
:100F600043600F4B836001A8FFF734FD041E13D1CB
:100F7000019B02901A880390013A2B6004925B88CF
:100F800002A9013B28000593FFF7BFFF041E03D110
:100F90000449280000F05AFA200007B030BDC046CE
:100FA000FFFFFF00FC55000010B5040C0C70010A97
:100FB0001170187010BDF7B5052504000E0017005C
:100FC000002812D00C3000F0FAF8043D00280CD0B4
:100FD000A468B9B2230A220CE4B20195DBB2D2B202
:100FE000B0B20094FFF7FAFD05002800FEBDF7B58A
:100FF00005250E0017001C00002811D00C3000F051
:10100000DEF8043D00280BD0230A220CE4B201953F
:10101000DBB2D2B2B9B2B0B20094FFF7DFFD050087
:101020002800FEBD70B51D00040008001100049BDF
:10103000AAB29BB289B280B2FFF7DAFC00280AD1CB
:10104000049B059A6B430100FFF7F2FC002802D1D4
:101050002000FFF746FF70BDF0B589B00700019191
:1010600003920520002F11D01D00039A6B18380041
:10107000491B00F057F8012808D801240026631BFB
:1010800002934440AE4203DB6042604109B0F0BDD0
:10109000029B002B42DA7300029A0133D3180293A9
:1010A000019B38009B1B0793019B07999B19069393
:1010B000039BEA18069B00F035F80128E6D8434266
:1010C0005841019B24185B1B0493019B0499EB1866
:1010D0000593039B38009A19059B00F023F801281B
:1010E000D4D843425841039B24185A1B0799069BA6
:1010F000380000F017F80128C8D843425841039B34
:1011000024189A1B0499059B380000F00BF801285D
:10111000BCD84342584101362418B3E7013D731B44
:101120005B00B9E7F0B587B00524051E44D000691F
:10113000043C904240DCA86990423DDB994202DDCC
:101140000800190003006E6901248E4234DBEF6849
:101150009F4231DC0800B94200DA38009E4200DDCF
:101160001E00341A631C03936B469C8991B280B2B3
:1011700022000123FFF73CFC041E1DD10E270D2683
:1011800002ABFF18F6180F2302AA9B1831003A0091
:10119000A868FFF709FF03993B783278019102A90B
:1011A000C97B200000912100FFF718FD041E03D128
:1011B0002800FFF796FE0400200007B0F0BD10B530
:1011C000031E0FD0046800238C420BDC84688C4221
:1011D00008DB4168914205DCC168D00FCB17914212
:1011E0004341DBB2180010BD03688268934201DD01
:1011F000026083604368C268934201DD4260C3605D
:101200007047F0B58BB006AC2300050045C945C357
:101210000A6820001A60FFF7E7FFEB68069A9A4217
:1012200000DA06936B69A2689A4200DDA3602B691D
:1012300062689A4200DA6360AB69E2689A4200DD54
:10124000E3600E270D2602ABFF18F6180F2302AA43
:101250009B1831003A00A868FFF7A6FE089B069A83
:1012600007999C1A6A46631C099C0698641A0393A2
:101270000134A3B2928989B280B2FFF7B9FB00288A
:101280000FD103993B784C43327802A90194C97B72
:1012900000910100FFF7A2FC002802D12800FFF70F
:1012A00020FE0BB0F0BDF0B589B006930EAB1B78F5
:1012B0000400059207930520002C24D00B00203B4E
:1012C00003385E2B1FD82200283212788BB282425C
:1012D0001BD10A273A2903D00137303B202915D1E9
:1012E000238C0220BB420ED90026E3690493069B9F
:1012F0000193019B0699A21D5B1AD27F9BB29A4271
:1013000006D87042704109B0F0BD203B9FB2E7E7BC
:10131000E31CDB7F012B05D0022B20D0049ABB00FD
:101320009B5801E0049BDB5D0293059B0393039BA9
:10133000059A9D1A631DDB7FADB2AB4213D8220024
:10134000631D0832DB7FD27F9B189D4229DB231D62
:10135000DB7FFF18019BBFB201330193C9E7049AF9
:101360007B009B5AE0E70122029B13420FD0019AB7
:1013700003992000FFF71FFE0128C4D843425841BB
:101380003618029B5B080293039B0133CEE7079B51
:10139000002BF6D06368019A03992000FFF727FE1F
:1013A000EAE7079B002B0BD0059B019A59192000F7
:1013B0006368FFF71CFE0128A5D843425841361840
:1013C0000135ADB2BBE7F0B587B003930CAB40CBB2
:1013D00005001B7805200593002D13D0002911D09E
:1013E0002B0028331B780338002B0BD08B18049369
:1013F00000230C00039F0293049BA34204D1029894
:101400004342584107B0F0BD21780A2908D1AB1DED
:10141000DB7F039F9E19EB1DDB7F9E190134EBE7F9
:10142000059B3A00009328003300FFF73CFF01289A
:10143000E8D8434258412A00029B08321B18029305
:101440006B1DDB7FD27F9B18FF18E7E710B50523E4
:10145000002806D01C301022002904D103F0D5FA50
:101460000523180010BD03F0C7FA0023F9E70000B8
:1014700070B5002A0DD11E4C1E4D466BA84222D1DC
:10148000062932D8080002F033FA07101F21303045
:101490002B001022184CEFE71849FE200B68C00102
:1014A00003407F200968014008E0FE201349C00185
:1014B0000B6809681B0C49020340490E0B4393401B
:1014C000344023436B6370BD0D49E6E70C490B685C
:1014D0000868FE211B0CC901194043025B0EEDE7B1
:1014E0007F21084B1B680B40E9E70023E7E7C04674
:1014F0008080FFFF00200040FFFF8080B481E00F6C
:10150000B881E00FBC81E00F70B502230C0043608E
:10151000002289780500FFF7ABFF237862781B076C
:1015200012051343E2781201134322791202134386
:10153000A279002A02D0802252041343E279002AC1
:1015400001D0042213436279002A01D002221343FE
:10155000227A002A01D001221343A27812041343F5
:10156000EB6070BD10B5FA230400DB0108009C425B
:1015700000D21C000A4B9C4200D91C00002802D15A
:10158000084800F075FA631E1818210002F0C4F92B
:10159000002803D001387F2800D97F20C0B210BDB9
:1015A000405DC6004081040070B50E7905000C0056
:1015B000002E1FD131001448FFF7D4FF06000A2384
:1015C000FE226B602178637809061B011943A3781A
:1015D000D2031943E37836021B0413401943FE2358
:1015E000DB011E4063793143002B01D008231943EE
:1015F000296070BD00210448FFF7B4FFFA200021E4
:10160000C001FFF7AFFFDAE7405DC600E0228021AE
:10161000184BD2005B69890013408B421DD007D85C
:10162000002B0DD080225200934220D0002008E0F1
:10163000C02189008B4205D09342F7D10E4800E0CB
:101640000E48704712200E4BDB6C1B0E98428041F7
:101650000C4B18400C4BC018F3E71220084BDB6C06
:101660001B0E98428041094B1840094BF3E709488B
:10167000E7E7C04600800C40406F4001809FD500E6
:10168000B081E00F400D030040420F0080E5F9FFFC
:10169000C0CF6A00C0D8A70010B5094B094A5C68E2
:1016A0000021904205D9084A0131904201D9063102
:1016B000214007205A6882430A435A6010BDC04641
:1016C00000000C400024F4000048E80170B5064C0E
:1016D000064BE56BE363FEF755FDFFF7DDFF002DDD
:1016E00001D00023E36370BD00000C40711B0000BB
:1016F000034B5A6DD20702D41A6D0242FCD17047D7
:1017000000800C4070B5054C054BE56BE363FFF7BB
:10171000C3FF002D01D00023E36370BD00000C4027
:10172000711B000000B503000006000F01380C28F3
:101730002CD802F0DDF8072B2B0D2B2B131E242B9E
:101740002B2B1600124B1868C003400F013000BD50
:101750000F4B9B680F221340012008E00C4B5B6885
:10176000F8E701200A4B5B681B0A03401B189840EE
:10177000EDE7084A934209D1054B9B6EEAE7064A1A
:10178000934203D1024B03221B6FE4E70120DEE703
:1017900000800C408006120090071A0010B503006C
:1017A0000006000F01380C000C2823D802F0A0F826
:1017B000072222172222303E502222222300FFF746
:1017C00085FF2C4A2C491368013CA4030B401C43A1
:1017D0001460FEF739FD0021FFF794FF0AE00800CE
:1017E00002F010FA0F2223498B6893431032101A2B
:1017F0001843886010BD080002F004FA1E231D493A
:10180000181A4A681D4B0002134018434860F1E75C
:10181000FFF75CFF200002F0F5F90F2215494B6835
:1018200093431032101A18434860D2E7144A934287
:10183000E0D10420FFF75CFF200002F0E3F90F2263
:101840000C498B6E93431032101A18438866D1E707
:101850000C4A9342CED14020FFF74AFF200002F00D
:10186000D1F9032203490B6F93431C32101A18431A
:101870000867BFE700800C40FF3FFEFFFFFEFFFF51
:101880008006120090071A0070B505000005000FD1
:1018900001380E00092815D802F02AF8051525147C
:1018A00014181B1E14220020104CED03ED0E00280E
:1018B00001D0FFF71DFF0122AA40AE4023689343E9
:1018C0001E43266070BD0020094CEEE70120094C44
:1018D000EBE71020084CE8E78020084C4000E4E7E4
:1018E0000020074CE1E70020064CDEE708800C40B2
:1018F00044800C4058800C4060800C4064800C4058
:1019000078800C4040800C4000B50F23184001380F
:10191000062805D801F0ECFF062033460464520087
:10192000002000BD2F4B304ADB6A03201340802289
:1019300052019342F5D006D8802201301201934221
:10194000EFD00520EDE78022022092019342E8D0FB
:1019500080220930D204F2E70321224A936A0B4025
:101960001800022BDDD006208B42DAD00800012BB4
:10197000D7D0936A0238DB03D3D50B30D1E70C22E2
:10198000184902208B6A1340082BCAD004309342B6
:10199000C7D00338042BC4D08B6A0238DB02C0D511
:1019A0001000BEE730200F4B9B6A03402D38102BF0
:1019B000B7D0203B584258410130B2E7E0208022A6
:1019C000084BC002DB6A9202034003209342A8D076
:1019D00080220730D2029342A3D0044A9B18E9E741
:1019E00007209EE700800C40003C00040000FFFF41
:1019F00010B50400FFF788FF1A498C420AD01A4B31
:101A00009C420CD00300032B2AD8180001F070FF71
:101A1000180C11140320154B9B6A0340F3E7134B7A
:101A20009B6A1B079B0FEEE7FEF726FC03001800DE
:101A300010BDFEF727FCF9E7FEF706FC4308F6E7C2
:101A40008C4202D0084A9442F1D1084A1020926A8E
:101A50008C4200D00430C240E9D0FEF710FCE5E72C
:101A60000023E4E702001E000300200000800C4079
:101A700070B5F8220300902192030400134049033B
:101A80008B4245D017D88022D202934235D007D856
:101A9000002B53D080229202934236D0002070BD9A
:101AA000E0221203934242D0802252039342F5D1A6
:101AB000FFF7ACFDF3E7802189038B422ED00BD8D2
:101AC000D022520393422BD0F02252039342E5D10D
:101AD0002748FFF78DFFE2E7982189038B4230D03A
:101AE0009342DBD1FEF7B0FB05002000FFF71AFEA2
:101AF0000100280001F010FFD1E7FEF747FB1D4B66
:101B00009B680F221340D840C9E7FEF79DFBC6E74C
:101B10001748FFF76DFF174B9B6EF2E71648D8E7A3
:101B20001548FFF765FF134B03221B6FEAE71348C5
:101B3000FFF7EAFE0728BBD00928AFD1FEF726FB46
:101B4000ADE70F48FFF7E0FE02380828A6D801F0FD
:101B5000C5FE0508A5A5A5A5A5F50B00FEF792FBFA
:101B60009DE7FEF789FB9AE7064B186897E7C046A2
:101B700002001E0000800C400300200006000E0042
:101B8000073326001C00002030B5052813D801F0CB
:101B9000AFFE1B1703271321082004230324134D32
:101BA000002921D02B62002A05D00123A34010492F
:101BB0000A681A42FCD030BD202010230524EEE72D
:101BC000802040230724EAE78020802380005B00F8
:101BD0000924E4E7802080230001DB001624DEE7EF
:101BE000012302201C00DAE72862E4E700800C40B1
:101BF0002C800C4070B50F250540681E0C0006288F
:101C00001ED801F075FE042929631D1D7F00881E62
:101C1000092815D801F06CFE1D05151814141414AC
:101C2000141B0120032401221100FFF7ADFFFFF771
:101C30004DFD4C4B5C62FEF707FB0021FFF762FD98
:101C400070BD02200400EEE703200124EBE705202D
:101C5000F8E700200424E6E7481E0B28F0D801F03E
:101C60003DFE2B131BEFEF23EFEFEFEFEF0601220B
:101C700000233C4CA16A022D21D13B48014019436D
:101C800013040B43A362DBE7012200201100FFF7DE
:101C90007BFF00220223ECE7012211001000FFF776
:101CA00073FF00220123E4E70421304A13680B4349
:101CB000136000220323DCE700221300D9E712059A
:101CC0009B0013432A4A0A401343DBE7022905D04D
:101CD000032910D00129B3D1002404E001220020FF
:101CE0001100FFF751FF30211E4A2401936A8B43F4
:101CF0001C439462A4E7012211001000FFF744FF87
:101D00000124F0E7032911D00A291DD0022997D117
:101D1000012200201100FFF737FF4022114B5A62C9
:101D200080225202D96A1142FCD089E701221100B7
:101D30001000FFF729FF60220A4B5A6280229202AC
:101D4000D96A1142FCD07BE7012205201100FFF780
:101D50001BFF8022034B5A628022D202D96A1142B1
:101D6000FCD06DE700800C40FCFFFEFF40800C4083
:101D7000F3FFEFFFEFF3108072B67047002800D139
:101D800062B67047EFF3108072B6704710B5FFF778
:101D9000F5FF10BD10B5054B1120DA6A044B1A602F
:101DA000FFF7B2FD034B187010BDC04600800C4019
:101DB000380900203C090020F8B556218026104F34
:101DC000104B114CFD6FFB672368FF311940F60083
:101DD000DB0A0E4833400B4303620D4B06001978B3
:101DE000052902D01120FFF705FF012322681A42BE
:101DF00001D1022232621D4201D00023FB67F8BDEF
:101E000008800C400E5800003809002000800C406B
:101E10003C09002070477047F8B5051E01D0FFF758
:101E2000B9FF04230F4A104E11690B431361346844
:101E30000E4B1C400E4BDC67FFF7ECFFFFF79AFFE1
:101E4000070003F021FA3800FFF798FFFFF7E3FFE0
:101E50003460002D02D0FFF7AFFFF8BDFEF7F4F9B4
:101E6000FBE7C04600ED00E000E100E094A3F7FFCF
:101E700004E100E0F7B508A90E7809A901930C78F0
:101E8000072A21D8134D97000723BB40B840296883
:101E9000964099430843286001259540019BE943FA
:101EA000934094400C4F38680840184338600B4802
:101EB00003680B4033430360094B1D62094B1868EC
:101EC000014021431960F7BD1700083FBF00064DD0
:101ED000DAE7C04600610040086100400C61004044
:101EE000FC6000401061004004610040F0B5002A31
:101EF00008D0242401254443194E8D40A419002BF9
:101F00001CD0256124244443154D6419072917D892
:101F10000F268F00BE406568B5431600BE403543AE
:101F20006560002A09D101328A401100242242430F
:101F3000002B11D00A4BD2181161F0BD6561E1E7A9
:101F40000F27084EA5688E19B600B740BD4317008D
:101F5000B7403D43A560E4E7014BD2185161ECE77F
:101F600000600040F8FFFF3FF8B5050014000800CE
:101F7000002A26D003262968124F1E4039402960C6
:101F80002A6833023A4013432B60002805D10E4BD8
:101F90009D4202D10D48FFF76BFD2B680C4B995DFC
:101FA000614300290DD0A400E4436418201801F017
:101FB000B3FC2B6801389B0702D5002800D1013003
:101FC0002861F8BDFFFCFFFF00A0004000B2040044
:101FD0002C590000012203689343194301607047A4
:101FE00070B5002343630B4B0D0003630123497855
:101FF00004004B40022102685B008A4313430360E4
:102000002B7BAA686968FFF7AFFF29782000FFF7EC
:10201000E1FF70BDFFFF0100F0B585B0A74A904217
:1020200000D0A1E100252E00A5498B680878029315
:102030004B880C7903900195C020976AC000074235
:102040001DD001989E49002800D04B80002D00D063
:102050000C71BB050FD5FD234B7009230B7037E0C6
:10206000012603200390E7E7019500232E00F8E7FF
:1020700001250195E0E77B05EFD5FE23ECE703980A
:10208000082800D964E101F03DFC09003900810015
:102090009600B800D30009011D0150018848002EA8
:1020A00001D000260670019E002E00D04380002D36
:1020B00000D00471029B58881B88C40618D50620DE
:1020C0001B0A0340EA30034301200870536250604A
:1020D0007B4B01201978092908D100215163012285
:1020E0009A56824200D159700120185605B0F0BDB1
:1020F000FE2423408007E7D50120E4E78020074243
:102100000CD0019E6E48002E00D04380002D00D0E0
:102110000471802313637F334B709EE0402007429D
:102120000BD167493F38002E3AD10198002800D0E2
:102130004B80002DCCD00C71CAE710630298408808
:10214000C7060DD5019E5E48002E00D04380002DAD
:1021500000D0047102230B70029B1B785362B7E717
:10216000800725D5019E5648002E00D04380002DC3
:1021700000D00471072308790B70029BC000181867
:10218000038901208342B1D1082369E080200742FE
:10219000B7D14020074205D149493E38002EC4D06E
:1021A0000870C2E7106302984088800700D557E79F
:1021B0000126052056E74248002E01D0032606706E
:1021C000019E002E00D04380002D00D00471029BA0
:1021D0005C881B88E0060DD506201B0A0340EA3008
:1021E00003430420044201D0012423430870012149
:1021F0005160B3E7FE200340F3E78020074200D0A0
:102200007FE74020074204D12D493C38002E8CD076
:10221000C6E71063029840884007C9D5019828494D
:10222000002800D04B80002D00D00C71072315E74B
:10223000029FE0003F183F899F421AD80420029B6A
:1022400001345B88E4B218400125002800D00BE778
:102250002B4007D01A4B58801C7108230B70063B8B
:10226000536035E7012C00D802E71548438004711C
:10227000F3E7134F002E01D005263E70019E002E7D
:1022800000D07B80002D00D03C71029C201840685B
:102290005C1CC35C4C8053620623DFE6802007424F
:1022A00000D02EE74020074205D10549002E00D17D
:1022B0003BE73A3874E710637AE7C04600A0004075
:1022C000400900202A488446002E02D00720664696
:1022D00030700198002801D060464380002D01D065
:1022E00063461C71BB0600D4F2E60879029BC0006D
:1022F000181803894C88D569A34203D94068661C25
:102300004E80055560464088834204D8012BA4D1F5
:1023100007335360A1E704215160012B00D8D7E6B1
:10232000013B984200D0D3E62EE71149002E01D0A0
:10233000082008700198002800D04B80002D00D0A4
:102340000C7180235B001F4200D1C1E6136384E659
:10235000019E0748002E00D04380002D00D004715C
:10236000FB234B70F23B79E604204042BEE6C046B8
:102370004009002010B5184B984202D0042040427A
:1023800010BD9A68D20701D520225A604A8890076A
:1023900002D508890028F1D0520702D50A8A002AFE
:1023A000ECD0002001240D4A107054705080107140
:1023B0009160C0225A604032D96811420AD1084A5D
:1023C00005481A63FC22596BD2000A435A63FFF78F
:1023D00023FED5E7D969EFE700A0004040090020BF
:1023E000FFFF0100002804D0012801D1024B196031
:1023F0007047024BFBE7C0460C000840080008404D
:102400000121034A13688B43184310607047C0468C
:1024100000000840034B002802D001221A627047D6
:102420001862FCE70000084042780378002A01D0D7
:10243000022213438278002A01D004221343014A66
:10244000136070470000084070B504001500081EB6
:1024500002D10548FFF70CFB6900013801F05CFA76
:102460000002606170BDC046408104000D4B0E4A01
:10247000C3600023036042600C4A83604361C3640D
:1024800082640B4A4365904202D00A49884200D1D7
:1024900003658365904202D0064B984201D1002328
:1024A000C3657047AA0E000005100000F91F000068
:1024B00000C0004000C4004070B50D000400FFF7EC
:1024C000D5FF01212A8A23681143AA7B0B43501EA2
:1024D00082419202134323602B7D2268591E8B4157
:1024E0005B0713432360AB7C002B03D01023EA7CF3
:1024F0001343A36580232A7B5B0113436360AA68AF
:1025000069682000FFF7A0FF6B7B002B01D0102330
:10251000E3606B7D002B04D0802322685B021343B1
:1025200023602B78E36070BD402302691A42FCD01F
:1025300041637047402302691A42FCD0C16370476F
:1025400002210C4A0C4B51605960013991615A6A61
:102550000A4B0B48197889000A50197809488900F4
:102560000958914202D21B789B001A500122064B57
:102570001A70704700000140000401408C090020DF
:102580006C0900204C0900208D090020054B8000BB
:10259000C258C158044B8908C358501A834280411D
:1025A000404270474C0900206C09002070B5184863
:1025B00000F0C3F800230125164C23702378072B65
:1025C00003D9134800F0B4F870BD2378124AD35CE5
:1025D000002B04D123780133DBB22370EEE721789E
:1025E0000B48C9B200F09EF800230C480C490D4A74
:1025F00043624B621370456004204D600A491378B2
:10260000002BE7D10B6983430B6130BFF7E7C0466E
:10261000001000408C0900204459000000000140D7
:10262000000401408D09002000ED00E030B587B0C6
:1026300001AC22001B4B23CB23C203CB03C20121DD
:102640001948FFF721F901211848FFF71DF9012169
:102650001748FFF719F92023164A1748516C0B4306
:1026600053640121FFF710F99022144B12051A60F0
:102670000A22DA61093ADA6000225A62104B114AE2
:1026800021001A60104A1148DA61114A1A64812245
:10269000104B52041A6100F021F804220E4B1A600C
:1026A00007B030BD30590000408104000002040032
:1026B0000012040000800C40006204000000014091
:1026C000000401400000010AFFFF0000001000406C
:1026D0000100100A00C00C4000E100E030B50B7AA8
:1026E0004C7A1B02240123434C684D782406234373
:1026F0000C78AD07E4072C43CA68234303608B7A48
:102700001402074A1B0722431343CA7A12041343D5
:1027100043600B7C012102688A431343036030BD90
:10272000B00000010722436893431943416070479A
:102730000122036893430360704701230268134337
:102740000360704700230B707047000030B5002213
:10275000104C41612368934209D12060836014E0EA
:10276000491B9D6841611A00002D0FD02B005D6947
:102770008D42F5D9002DF3D0002A09D090608360F6
:10278000002B02D05A69511A596130BD2B00F5E770
:102790002060F4E7A009002010B500F00FFA094B03
:1027A000094A1968002906D01368C41A4B69A34264
:1027B00003D31B1B4B61106003E0C01A00231060A1
:1027C0004B6110BDA00900209009002010B5064BF8
:1027D00002201B685C69054B1B68E41800F0FEF9D9
:1027E000200000F025FA10BDA0090020900900206B
:1027F00070B50400160004AA0D0002CA2661107804
:1028000006AA2071002012882160A060E360E280A7
:10281000854207D16561834201D020009847002E90
:1028200012D03500FFF7AEFA0600FFF7B5FF29001A
:102830002000FFF78BFF054B1B68A34201D1FFF778
:10284000C5FF3000FFF7A2FA002070BDA0090020EC
:1028500010B5002103000E4C2268002A11D09A42C4
:102860000CD19A68002910D08A609A68101E0BD08B
:102870005B6951690020CB18536105E01100926833
:10288000EBE70220002BECD010BD2260EDE7C04644
:10289000A009002070B5FFF775FA114D06002C78DD
:1028A000002C18D10F4B1C600F4B1C600F4B1C8071
:1028B00000F05CF9012000F091F900F0E7F90C4B11
:1028C000020018600B4923000B4801F0B9F90B4BCB
:1028D000186001232B703000FFF758FA002070BDFC
:1028E0008E090020A00900209009002098090020EE
:1028F0009C090020E703000018FCFFFF940900205A
:1029000070B505000C002220002D10D000290ED03B
:1029100000230B70FFF736FA0121084B1B68002BD0
:1029200002D02278002A03D0FFF730FA002070BDD1
:102930009D4201D12170F2E79B68F0E7A0090020D9
:10294000F0B58BB01725059310AB1B7804000693E8
:1029500011AB1B880E00079304ABED180023170082
:102960002B7022209C4212D029002000FFF7C8FFC4
:102970002A780320002A0AD1079B31000293069B84
:1029800020000193059B00933B00FFF731FF0BB044
:10299000F0BDF0B58BB01725059310AB1B78040084
:1029A000069311AB1B880E00079304ABED180023B0
:1029B00017002B7022209C4213D029002000FFF723
:1029C0009FFF2B780220002B0BD1079B3200029334
:1029D000069B31000193059B200000933B00FFF70D
:1029E00007FF0BB0F0BD0000014B18687047C046F0
:1029F0009C09002010B5FA21034B89001B6858433D
:102A000000F08AFF013010BD9C09002010B58AB08B
:102A10000F2401236C442370FFF7ECFF0023010017
:102A200001930093054A230004A8FFF789FF0028BB
:102A300002D12378002BFCD10AB010BD452700003D
:102A400010B50B4B0C0019680200212091420DD3E8
:102A5000084B18680023190001F012F9FA2200232C
:102A6000920001F0EDF801302060002010BDC0465A
:102A7000940900209C090020F7B50400C3070CD579
:102A8000374A138801339BB21380FFF785FE354B1D
:102A90001B68002B01D0FFF799FEA3071AD500F0A1
:102AA0008DF8314F05003B68C31A0093FFF76AF9B0
:102AB00006002C4B1C68002C4ED06369009A934290
:102AC00009D9009A3D609B1A6361FFF77FFE3000D1
:102AD000FFF75CF9F7BD2300009A3D605969914208
:102AE00009D8207984461879844500D91C009B6850
:102AF000521A002BF2D13000FFF748F963690193B5
:102B000000236361FFF73EF906002000FFF7A0FEF7
:102B10003000FFF73BF92369002B09D0FFF732F9AA
:102B2000060021692000FFF711FE3000FFF72EF9A3
:102B3000E368002B02D021682000984700F03EF89F
:102B4000019B04005D19009B5D1B43190093FFF777
:102B500019F925000600ACE7022000F057F8B6E7A7
:102B600098090020A00900209009002013B5104CFE
:102B700001212000FEF712FE01212000FEF784FE55
:102B80000024012301A8037084704470FFF74CFCFB
:102B90000721084BDA698A43DA61802299615C6017
:102BA0007A31054B5201FF315A501A6013BDC046AD
:102BB000800612000000084000E100E0054A064BD4
:102BC00050681B781169C90701D5506801331B068D
:102BD0001843704700000840A80900200122024065
:102BE00013000849800709D5074B1878002803D03F
:102BF000042088610020187004231343CA6913431A
:102C0000CB61704700000840200000200123020033
:102C10001A40810703D504210A4303490B70034975
:102C2000CB699343CB61704720000020000008402F
:102C300010B50400FFF7C2FF114B1A69114B520780
:102C400006D41A68121A022A02D81A68824212D1CD
:102C5000221A012A00D8841C1C601A68101A0A4A19
:102C6000904209D8196801200902090AFFF7BAFB46
:102C70000220FFF7B3FF10BD0220FFF7C7FFFAE7FE
:102C800000000840A4090020FFFFFF0010B5024823
:102C9000FEF7EEFE10BDC04680061200F8B5FFF745
:102CA00071F807000120174E00243569054219D03C
:102CB0008022154B52041C782406A4186242544109
:102CC0001A78E4B21218D2B21A70104A126819783F
:102CD0000F4B0906511A994204D8FFF783FB0220D3
:102CE000FFF77CFF6B0701D502231C4305231D4022
:102CF000B561002C02D02000FFF7BEFE3800FFF7C0
:102D000045F8F8BD00000840A8090020A4090020EB
:102D1000FFFFFF000023052902D8074B8900CB588D
:102D2000002A04D0012A02D1834202D05B4218005B
:102D300070470023FBE7C04660650000F0B585B032
:102D40000D0004003E49280000F0E6FD3D4A030066
:102D50009446634401903C491800029300F062FEDF
:102D60000F003A49380000F0D7FD3949C61938003C
:102D700000F0D2FD3749361A380000F0CDFD6E2143
:102D8000361AFF31300000F0C7FD2F49039002983A
:102D900000F0C2FDC8235B005843039B2E49C318B3
:102DA0003000029300F0B8FD2949C719300000F047
:102DB000B3FD6E233F1A0520039AFF335343FF1AD6
:102DC00078439921023000F0A7FD06009920704356
:102DD0007B1C023005211F0000F09EFD03233F1ADB
:102DE000092E00D90C3B28003C219E1900F01AFE48
:102DF000280021603C2100F08FFD3C2100F012FEF4
:102E00006160E1212800090100F086FD182100F031
:102E100009FE02230020114AB34240419446029B1E
:102E2000A160C018019B60616344E76026611800DF
:102E3000072100F0F7FD20000631A16105B0F0BDCB
:102E4000805101006CFA0A00B13A0200AC8E000019
:102E5000B4050000B03A0200948E000071FA0A0036
:102E600007B5012200201100FEF78EFE0121124855
:102E7000FEF70AFD02211148FEF7BCFE01211048B1
:102E8000FEF702FD0F490020FFF7ACFA02230E4ABD
:102E900001A8D1690B43D361C02180220B4B5201A1
:102EA00049005A501A600A49032201F0A5FD01A801
:102EB000FFF7BAFA07BDC046D0233E0002001E004D
:102EC00080061200FF7F00000000084000E100E0E3
:102ED0005C65000070B5202304000D1E01DA2D236F
:102EE0004D422370FA21002389006371280000F00D
:102EF00083FE0800642100F099FD2E233030E3703A
:102F000020710D49280000F077FE0800FA218900A1
:102F100000F08CFD3030A0700849280000F06CFEF5
:102F20000800054900F082FD3030C0B2302800D1E1
:102F30001038607070BDC04610270000A0860100E8
:102F4000F0B593B01D00031F0A93031D0C931423C7
:102F500004926E22484E03910B930100083B04003B
:102F600030000D92FEF778F80AA93000FEF749F913
:102F70000023424FB360039B77609D4200DA1D003F
:102F8000A31E05930E93049BA61C10969D4200DD84
:102F90001D00039BE81A01F09FFB039A049B051C8C
:102FA000981A01F099FB011C281C00F06DFF3449B0
:102FB00001F07CF8011C334801F0AAF900F08AFE08
:102FC00060232D4D0F900EA928001193FEF719F9DB
:102FD000A31E0E935F230EA90F93280006331096AD
:102FE0001193FEF70EF9210009236E222800FEF747
:102FF00033F80023A61FAF60A71D6B6031003B00B4
:1030000060222800FEF78EF83B00310017222800CE
:10301000FEF788F81C4E039B32000A2107A801F036
:10302000FDFC07A801F02CFD00275C2308340200FA
:10303000009307A9230001972800FEF7C4F9049B19
:1030400032000A2107A801F0E9FC07A801F018FDE9
:1030500013230200009307A9230001972800FEF71D
:10306000B2F96B23019700930122059B18A9280050
:10307000FEF7A9F913B0F0BDAC090020FFFFFF0077
:10308000000092420000C042AD65000010B5FDF79F
:10309000FFF8002800D0FEE7FDF76EFE002800D004
:1030A000FEE7074C2000FDF755FF002800D0FEE7A3
:1030B000044B606004492000A360FEF7C7F910BD0F
:1030C000AC090020FFFFFF00CC52000073B5114C8B
:1030D000060020000D00FDF7EAFE002D0CD00023B5
:1030E000102201930C49733300936E3B2000FEF7CE
:1030F0006AF9FDF77DFE73BD0523002E04D101960C
:10310000009320220549F1E701950093202204490C
:10311000ECE7C046AC090020B1650000BE650000C8
:10312000DE650000F0B5A1B0A34C0600200017003A
:1031300008910993FDF7BBFE002F0DD000230C2250
:1031400001939E4978330093733B2000FEF73BF9CF
:10315000FDF74EFE21B0F0BD310013A8FFF7BAFE17
:1031600013A801F08DFC03230200009313A9DB18C0
:1031700001972000FEF727F9FA213000890000F0BE
:1031800055FCFA2107908900279800F04FFCFA219E
:1031900005008900269800F049FC43232A0001001D
:1031A00000931520079BFFF7CBFE09253000052172
:1031B000684300F03BFCFA22D2018618310013A8C4
:1031C000FFF788FE13A801F05BFC032302000093C5
:1031D00013A92C3301972000FEF7F5F8FA213000EF
:1031E000890000F023FC0A9027980521684300F02D
:1031F0001DFCFA22FA21D2018018890000F016FC89
:10320000060026980521684300F010FCFA22FA21F6
:10321000D2018018890000F009FC46233200010029
:1032200000933E200A9BFFF78BFE089913A8FFF737
:1032300051FE13A801F024FC03230200009313A9FC
:10324000543301972000FEF7BEF8FA210898890050
:1032500000F0ECFBFA2106008900299800F0E6FB5B
:10326000FA2105008900289800F0E0FB25232A00B8
:103270000100009366203300FFF762FE09990CA855
:10328000FFF75CFD0C9B0E9D08930F9B4C49099327
:10329000109B20000A930D9EFEF7D8F80A21280003
:1032A00000F03AFB0A210B90089800F0BBFB08984D
:1032B00004910A2100F030FB0A210390300000F055
:1032C000B1FB300002910A2100F026FB0A21019097
:1032D000280000F0A7FB322500910B9B394A3221D0
:1032E00013A801F09BFB19220523009513A9019750
:1032F0002000FEF768F80A21099800F00DFB119BE9
:1033000006000A210A98039300F08CFB0A980291A8
:103310000A2100F001FB0A210190099800F082FBCC
:1033200033000091284A290013A801F077FB4B23B2
:103330001922009313A9463B01972000FEF743F89A
:10334000224B5F2201931023052100932000FDF7FB
:1033500069FE0798642100F04FFC08000A2100F084
:1033600065FB1B490500079800F046FC0800194959
:1033700000F05CFB17490290079800F03DFC080044
:10338000FA21890000F052FBFA2101908900079888
:1033900000F032FC0800642100F048FB2B00009094
:1033A0000D4A0A2113A801F039FB5F23019700930E
:1033B0001922413B13A9C8E6AC090020786500003A
:1033C0004C5900008565000094650000FD65000013
:1033D000A086010010270000A16500000122014B1A
:1033E0001A70704728000020044A136801331360E4
:1033F0000123034A1370034A13707047DC0900204D
:10340000280000202900002010B5034A034B106853
:103410001B68984710BDC046E8090020EC09002051
:1034200010B5194B1B68002B18D0FFF7BFF803200D
:10343000FFF7ACF8002812D00420FFF7A7F8021E0F
:103440000DD1124B124C13491868236809781818CB
:10345000C9B2FFF75FFC2368C018206010BD0420CC
:10346000FFF794F80028F9D00320FFF78FF8002821
:10347000F4D1084A054B064C1B6820681178C01827
:10348000C9B20122E5E7C046F0090020E0090020AA
:10349000F4090020FC09002030B585B004000800C4
:1034A00003A91500FFF7CCFA002807D1019000907E
:1034B00003002A0003992000FFF76BFA05B030BD26
:1034C000034B044A1A60044B01321A607047C0462D
:1034D00030000020FFFFFF7F2C000020034B044A38
:1034E0001A600022034B1A607047C0462400002077
:1034F000FFFFFF7FE409002010B5FFF7E1FFFFF7B2
:10350000EDFF10BDF0B595B00EA90A009F4B13CB8F
:1035100013C213CB13C201229D4B1A649D4BDB6C6B
:103520001B0E812B07D89C4B9C4A9D491A609D4AD3
:1035300013680B40136002219B48FEF75BFB0121DF
:103540009A48FEF7A1F9FFF78BFC01219848FEF796
:103550009BF90123042208210220FEF7C7FC022266
:10356000012310000921FEF7C1FC012709220023D5
:103570001100022001970097FEF77CFC02223B001D
:1035800010000A21FEF7B2FC0A22002311000220DB
:1035900001970097FEF76EFC0222864B00241A600A
:1035A0001F2309AD844E073221000BA8EB702C704D
:1035B0006C70AC702C716C7101F027FA39007F4887
:1035C000FEF762F929003000FDF7EEFF042320200A
:1035D00004AA53771218173810700BAA1100300084
:1035E000FDF792FF764BC0227363736971493B43C9
:1035F0007361102352008B500B60FFF74BF9FFF7FC
:1036000045FD0EA8FDF72EF8FFF710F86D4B2200D0
:1036100080210E981C70FDF7D1F82100FFF756FDB0
:10362000FA20C000FFF7F2F9FA21674AC90067489B
:10363000FFF732FF664A64216648FFF72DFFFA2143
:10364000654A89006548FFF727FF2000FEF7E4FB85
:10365000022307960593059A012310000921FEF71E
:1036600045FC059A012310000A21FEF73FFC5C4A45
:10367000136812685B0A920A13430122134201D1B4
:10368000FFF73AFF574D2B78002B4CD00023012138
:103690000424554A0E981370079B596053491378B8
:1036A000002B6BD0079B524E5B6A524C0693220054
:1036B00033008021FDF754F84F4B1A68002A01DDD2
:1036C00000221A604D490A68002A01DA00220A60C5
:1036D0004B4A1168002901D000211160AF2100225E
:1036E000069809012A7081425241D5B2002F00D0BC
:1036F0002F00444A306821681468434A126812193E
:10370000541EA241414CD2B2246803943C4C24681C
:1037100002943A4C246801941B683C0000933B00DF
:10372000FFF700FD2F003A4B1B78002B93D0394B4D
:103730002F4A1968304B10681B689C462F4B1D6838
:103740002F4B1E68314B1B6806932A4B00291AD158
:1037500019682C4B2C4A1B6812680296D218531E0B
:103760009A41069BD2B203936346019500932300CE
:10377000FFF7D8FC0022264B1A706CE70B69A343B5
:103780000B6130BF8BE71968234BE3E7206600002D
:1037900000000C40B081E00F18600C4005000004F0
:1037A000FFFFFFFEE4800C4002001E00D0233E001D
:1037B0000082040000E100E00020004000A20400BC
:1037C0007C1F0000FC090020DD330000380A0020C7
:1037D00021340000680A0020E9330000200A00209C
:1037E0006460004028000020D809002000ED00E0BF
:1037F000000A0020F8090020300000202C000020E2
:1038000024000020DC090020F4090020E409002045
:1038100029000020F0090020E0090020034B9A69EC
:103820001A620122024B1A707047C0460020004005
:10383000D809002030B5134B9C69A2050CD5124D58
:103840001C622868114A1249002813D112680A60C4
:10385000104A107001222A6062050AD51C620A4BC8
:103860001B68012B05D10B4A1378052B06D10023C9
:10387000137030BD096811600022ECE71378013342
:10388000DBB2F5E7FC600040F0090020DC09002015
:10389000E0090020FC09002010B5FFF7CBFF10BDA8
:1038A00013B51400094B1860094B1960FFF79CF819
:1038B000210000F031F8002401000194009423005D
:1038C000044A0548FFF765F8200016BDEC09002002
:1038D000E809002009340000500A002002B47146B3
:1038E00049084900095649008E4402BC7047C04649
:1038F00002B4714649084900095C49008E4402BC83
:103900007047C04603B47146490840004900095A4F
:1039100049008E4403BC7047002243088B4274D395
:1039200003098B425FD3030A8B4244D3030B8B42C0
:1039300028D3030C8B420DD3FF22090212BA030CC9
:103940008B4202D31212090265D0030B8B4219D3AA
:1039500000E0090AC30B8B4201D3CB03C01A5241CA
:10396000830B8B4201D38B03C01A5241430B8B4212
:1039700001D34B03C01A5241030B8B4201D30B03FB
:10398000C01A5241C30A8B4201D3CB02C01A524122
:10399000830A8B4201D38B02C01A5241430A8B42E5
:1039A00001D34B02C01A5241030A8B4201D30B02CE
:1039B000C01A5241CDD2C3098B4201D3CB01C01AE8
:1039C000524183098B4201D38B01C01A52414309F2
:1039D0008B4201D34B01C01A524103098B4201D3E0
:1039E0000B01C01A5241C3088B4201D3CB00C01A4D
:1039F000524183088B4201D38B00C01A52414308C5
:103A00008B4201D34B00C01A5241411A00D20146E9
:103A1000524110467047FFE701B5002000F0F0F872
:103A200002BDC0460029F7D076E7704703460B4336
:103A30007FD4002243088B4274D303098B425FD3A7
:103A4000030A8B4244D3030B8B4228D3030C8B42D3
:103A50000DD3FF22090212BA030C8B4202D31212B9
:103A6000090265D0030B8B4219D300E0090AC30B8E
:103A70008B4201D3CB03C01A5241830B8B4201D33B
:103A80008B03C01A5241430B8B4201D34B03C01A24
:103A90005241030B8B4201D30B03C01A5241C30A9C
:103AA0008B4201D3CB02C01A5241830A8B4201D30D
:103AB0008B02C01A5241430A8B4201D34B02C01AF7
:103AC0005241030A8B4201D30B02C01A5241CDD29C
:103AD000C3098B4201D3CB01C01A524183098B42E7
:103AE00001D38B01C01A524143098B4201D34B01D0
:103AF000C01A524103098B4201D30B01C01A524133
:103B0000C3088B4201D3CB00C01A524183088B42B9
:103B100001D38B00C01A524143088B4201D34B00A2
:103B2000C01A5241411A00D2014652411046704714
:103B30005DE0CA0F00D04942031000D34042534019
:103B400000229C4603098B422DD3030A8B4212D3D9
:103B5000FC22890112BA030A8B420CD3890192110B
:103B60008B4208D3890192118B4204D389013AD048
:103B7000921100E08909C3098B4201D3CB01C01A1D
:103B8000524183098B4201D38B01C01A5241430930
:103B90008B4201D34B01C01A524103098B4201D31E
:103BA0000B01C01A5241C3088B4201D3CB00C01A8B
:103BB000524183088B4201D38B00C01A5241D9D2A3
:103BC00043088B4201D34B00C01A5241411A00D224
:103BD0000146634652415B10104601D34042002B20
:103BE00000D54942704763465B1000D3404201B59F
:103BF000002000F005F802BD0029F8D016E7704754
:103C00007047C0461C2101231B04984201D3000CBD
:103C100010391B0A984201D3000A08391B0998423F
:103C200001D30009043902A2105C40187047C04655
:103C30000403020201010101000000000000000075
:103C4000002B11D1002A0FD1002900D1002802D069
:103C50000021C943081C07B4024802A14018029081
:103C600003BDC0469DFFFFFF03B4684601B502983F
:103C700000F048F8019B9E4602B00CBC7047C0465D
:103C8000F0B5CE46474615042D0C2E0080B507042E
:103C9000140C3F0C9946030C7E435D43674363431A
:103CA0007F19340CE4199C46A54203D980235B029A
:103CB0009846C4444B4643435143250C360465445F
:103CC000360C2404A4195B19591820000CBC90462A
:103CD0009946F0BD9E2110B5C905041C00F076FD83
:103CE000002803D1201C00F0D7FC10BD9E21201C11
:103CF000C90500F00DFB00F0CFFC80231B069C469D
:103D00006044F2E7F0B54F464646D646C0B50400DB
:103D100082B00D00914698468B422FD82CD0414658
:103D2000484600F05DFD29000600200000F058FD27
:103D3000331A9C46203B9A4600D576E04B465246C5
:103D400093401F004B46624693401E00AF4228D866
:103D500025D05346A41BBD41002B00DA7BE0002296
:103D600000230092019301235246934001930123C3
:103D700062469340009318E08242D0D9002200238B
:103D8000009201930A9B002B01D01C605D6000989B
:103D9000019902B01CBC90469946A246F0BDA342D0
:103DA000D7D900220023009201936346002BE9D06B
:103DB000FB079846414672080A437B0866460EE0B8
:103DC000AB4201D1A2420CD8A41A9D410120241972
:103DD0006D410021013E24184D41002E06D0AB421A
:103DE000EED9013E24196D41002EF8D100980199B9
:103DF000534600196941002B23DB2B005246D34068
:103E00002A006446E2401C0053461500002B2DDBBF
:103E100026005746BE40330026006746BE403200AB
:103E2000801A994100900191ACE7624620239B1AC9
:103E30004A46DA406146130042468A4017001F4353
:103E400080E7624620239B1A2A0066469A40230098
:103E5000F3401343D4E76246202300219B1A00223B
:103E6000009101920122DA40019280E7202362460C
:103E700026009B1ADE402F00B0466646B7404646F5
:103E80003B003343C8E7C046F8B557464E46454663
:103E9000DE464402E0B546008846640A360EC70F87
:103EA000002E63D0FF2E24D08023E400DB041C43CB
:103EB000002399469B467F3E434642465D02D20F11
:103EC0005B006D0A1B0E9046924665D0FF2B55D0C5
:103ED00080220021ED00D2047F3B1543F61A4346B1
:103EE0004A467B400F2A00D98DE06D4892008258E7
:103EF0009746002C54D108239946063BFF269B4643
:103F0000DAE70025534602291BD0032900D1BFE080
:103F1000012928D030007F30002820DD6A0704D036
:103F20000F222A40042A00D004352A0103D530008C
:103F30005C4A80301540FE2803DCAC01640AC2B242
:103F400001E0FF2200246402D205600ADB0710436F
:103F500018433CBC90469946A246AB46F8BD0122A8
:103F6000101A1B287CDD00220024ECE7002C1DD158
:103F700004239946033B00269B469DE7FF3E002D08
:103F800020D1022143464A467B400A430F2AD8D813
:103F90004548920082589746002D19D10121F1E73A
:103FA0000C239946093BFF269B4685E72000FFF737
:103FB00029FE7626431F9C4000237642361A9946F6
:103FC0009B4679E74A4603231A439146032186E735
:103FD0002800FFF717FE431F36189D407636002154
:103FE0007DE780240023E403FF22ACE70025802343
:103FF000DB031C4228D01D4226D12B435C02640AFD
:104000004346FF229FE762016C01A24224D21B219A
:104010000025013E012710006D005200002801DB41
:10402000944201D8121B3D4301390029F3D11400F9
:10403000621E944125436DE7BA4659462500534612
:10404000022900D061E77CE78023DB031C43640284
:10405000640A3B00FF2276E7121B1A210125D9E7EB
:104060009E362A00B5402C00C240651EAC41144368
:10407000620704D00F222240042A00D004346201D7
:1040800003D4A401640A00225DE7012200245AE758
:104090008024E4032C436402640AFF2253E7C046F1
:1040A00038660000FFFFFFF778660000F0B54E4667
:1040B00057464546DE46E0B543025B0A450083B0FD
:1040C0000F1C99462D0EC60F002D57D0FF2D24D062
:1040D0008020DB00C0041843002381469A469B469B
:1040E0007F3D7C027A00FB0F640A120E984623D0B3
:1040F000FF2A4BD0E30080240020E4047F3A1C43D5
:10410000AD186B1C47460193534677403A000F2B7E
:1041100048D87D499B00CB589F46002B00D085E0B6
:1041200008339A46063B9B467C027A00FB0FFF252C
:10413000640A120E9846DBD1002C00D090E0524663
:1041400001231A4392460120DBE74C4658461700EC
:10415000022824D0032800D1CFE000220023012828
:104160004DD15802D205400AFF071043384303B02F
:104170003CBC90469946A246AB46F0BD002B5BD1B5
:1041800004239A46033B00259B46AAE7FF35002CF3
:1041900060D1524602231A4392460220B1E7FF2221
:1041A0000023DEE74B461B0C9C464B462604360C90
:1041B000180461463300220C6446000C43434E430E
:1041C0005043544380191A0C1218964203D9802187
:1041D00049028C4664441B041B0C1004C018830164
:1041E0005E1EB341800E1843130C1B199B01034341
:1041F0001C00230179D5012362081C401443019A55
:104200007F32002A4DDD630704D00F232340042BA7
:1042100000D00434230103D53C4B019A1C4080326A
:10422000FE2ABCDCA3015B0AD2B29AE70C239A46B1
:10423000093BFF259B4654E71800FFF7E3FC4A467D
:10424000431F76259A4000236D4291462D1A9A46C7
:104250009B4646E7524603231A439246032050E703
:104260002000FFF7CFFC431F2D1A9C40763D002015
:1042700047E780230027DB03FF2272E7424666E719
:104280004C463200584662E780234A46DB031A4216
:1042900022D01C4220D123435B025B0A4746FF2207
:1042A0005FE701239A1A1B2A21DC23000199D340DE
:1042B0009E318C401A0023005C1EA34113435A0711
:1042C00004D00F221A40042A00D004335A0111D41A
:1042D0009B015B0A002244E780234A46DB03134329
:1042E0005B025B0A3700FF223BE7019587E700226C
:1042F000002336E70122002333E78023DB03234337
:104300005B025B0AFF222CE7B8660000FFFFFFF7A5
:10431000F8B54746CE464400C20F80B54702480272
:10432000400A8446664648007F0A240EF6002500AF
:104330009046FB00000EC90FB146FF2800D185E072
:1043400001267140261A914257D0002E43DD0028E5
:1043500000D07FE04946002900D1AAE0013E002EAE
:1043600000D0F7E05B1A5A0100D48BE09B019C0956
:104370002000FFF747FC05388440854200DDD3E08C
:10438000451B230020200135EB40451BAC40621E3D
:1043900094412343072400251C40012241460A4042
:1043A000002C04D00F211940042900D004335901F6
:1043B00000D480E00135ECB2FF2D00D0A3E0FF2453
:1043C00000235B02E405580AD207204310430CBCCB
:1043D00090469946F8BD002E74D1601CC0B20128E9
:1043E00000DCA7E04A469C1A620100D5B6E0002C2A
:1043F000BED1002200240023E3E7002E00DC85E08C
:10440000002846D0FF2C49D080224846D2041043D1
:10441000814601221B2E09DC20204C46801B844053
:104420004A462000F240441EA04102439B185A0114
:1044300028D50135FF2D00D1A8E001220724944999
:104440001A405B080B4013431C40A6E7002E00D027
:1044500078E775E7FF2C54D080224946D2041143F7
:10446000894601221B2E09DC20214846891B8840F1
:104470004A460100F240481E81410A439B1A5A01F4
:1044800000D573E7012241460A40590700D089E769
:1044900011E04846002858D1FF2C0CD1DB08002B36
:1044A00000D18CE78020C00303435B025B0AFF243A
:1044B00087E7FF2C25D0DB08FF2DF0D05B025B0ADD
:1044C000ECB27EE7002C4DD0FF2818D08024E40405
:1044D000724223431B2A00DDC4E01C002025D44087
:1044E000AA1A93405A1E934123434A460500D31A01
:1044F000884638E7721CF8D0F243FF28EAD10A0058
:104500004B46FF25D7E79B015B0A5AE7002E41D1B6
:10451000651CE9B2012945DDFF2D00D14FE70724D5
:104520004B445B081C4038E707225A4B2D1A2340A6
:10453000144032E7002C1DD1002B7AD14B46002BC2
:1045400000D191E00A000025B5E7013E002E19D107
:104550004B446CE7FF2C84D1FF25ACE74A468846E4
:10456000D41A05E7002BC5D10A00FF28C8D00500E2
:104570004B46A0E7002B49D14B46002B77D00A00D1
:10458000FF2598E7FF2C00D043E787E70A00FF24C8
:10459000002316E7002C15D1002B57D1FF28E6D1B8
:1045A0004B467BE7002C20D1002B57D049460029F1
:1045B00053D04B445A0168D50724364A1C40012584
:1045C0001340EAE6FF28EBD08022D2047642134360
:1045D0001B2E53DC2025AD1B1A00AB40F2405C1EA5
:1045E000A34113434B44050021E7002BD8D0494693
:1045F000002900D152E78021C9030F4200D14DE7C5
:104600006046084200D049E74B4647E74846FF2549
:10461000002800D14FE78022D203174204D0604621
:10462000104201D14B46884601224146FF250A40EF
:1046300041E7484600281FD01A1A500120D54A46A3
:104640000724D31A1C4088460025A6E6741CC9D04E
:10465000F643FF28BCD14B4620E799464B46002540
:10466000DB082BE7012340E700220023A9E6802393
:104670000022DB03FF24A4E600251CE70123B1E7A9
:10468000002AF1D013000025FCE60025FAE6C0461A
:10469000FFFFFF7DFFFFFFFB41024200C30F490AFE
:1046A000120E00207E2A0DD99D2A0CD880200004ED
:1046B0000143952A0ADC9620821AD1404842002BF9
:1046C00000D108007047034A9818FBE7963A9140DA
:1046D000F4E7C046FFFFFF7F70B500283DD0C31749
:1046E000C5185D40C40F2800FFF78CFA9E22121AED
:1046F000962A07DCD2B2082833DD083885406802E4
:10470000400A23E0992A0BDD052329001B1AD94012
:1047100003001B339D402B005D1EAB4119430D0070
:10472000052801DD431F9D402B000F490B406E07FC
:1047300009D00F263540042D05D004335D0102D584
:104740009F220B40121A9B01580AD2B24002D20596
:10475000400AE4071043204370BD002400220020DB
:10476000F4E76802400AF1E7FFFFFFFB8446081CFC
:104770006146FFE71FB500F0B5F8002801D400211D
:10478000C8421FBD10B500F037F84042013010BDDF
:1047900010B500F0A7F8002801DB002010BD0120B3
:1047A00010BDC04610B500F09DF8002801DD0020C6
:1047B00010BD012010BDC04610B500F045F800281E
:1047C00001DC002010BD012010BDC04610B500F076
:1047D0003BF8002801DA002010BD012010BDC046C2
:1047E00010B5002903D1FFF70DFA203002E0081CB4
:1047F000FFF708FA10BDC04670B542004E024C00EB
:1048000045026D0A120EC30F760A240EC90FFF2A45
:104810000FD0FF2C11D00120A24200D070BDB542B4
:10482000FCD18B420DD0002AF8D12800451EA841AA
:10483000F4E70120002DF1D1EBE70120002EEDD1AE
:10484000E9E70020EAE7C04670B54A004E0245029B
:1048500044006D0A240EC30F760A120EC90FFF2CF6
:1048600015D0FF2A0ED0002C15D1002A01D1002E20
:104870001CD0002D14D08B4227D00220013B1840C1
:10488000013870BD002EEED002204042F9E7002D25
:10489000FAD1FF2A0ED0002A0ED1002EEDD00BE067
:1048A00001230139994308000130EAE70020002D77
:1048B000E7D0E2E7002EE7D18B42DED1944205DD5E
:1048C0000221581E08400138DBE70024A24204DC24
:1048D000B542D2D80020B542D3D2581E0123984306
:1048E0000130CEE730B5420044024D02C30F48000C
:1048F000640A120E6D0A000EC90FFF2A12D0FF289B
:104900000CD0002A12D1002819D1002D17D1002C6B
:104910002BD00220013B1840013826E0002DF0D0BA
:10492000022022E0002CFBD1FF281FD000281FD13D
:10493000002D1DD10220013B1840013815E0002C4C
:104940000ED08B42E5D10022904204DCAC42E0D88C
:104950000020AC4209D2581E01239843013004E0E4
:104960000123013999430800013030BD002DD7D112
:104970008B42CED18242E7DD0221581E0840013829
:10498000F3E7C046084B10B50400002B02D000210D
:1049900000E000BF054B1868836A002B00D09847E1
:1049A000200000F061FCC04600000000F866000036
:1049B00070B500260C4D0D4C641BA410A64209D105
:1049C000002600F053FC0A4D0A4C641BA410A642BA
:1049D00005D170BDB300EB5898470136EEE7B30040
:1049E000EB5898470136F2E7A0000020A000002015
:1049F000A0000020A4000020002310B59A4200D19E
:104A000010BDCC5CC4540133F8E703001218934284
:104A100000D1704719700133F9E700000CB430B5CC
:104A2000164B9DB00C1E1D6808DA8B2301202B60ED
:104A300040421DB030BC08BC02B01847822302A916
:104A40009B008B810023029008619C4200D0631E72
:104A50008B604B6101235B42CB81209A21AB280004
:104A6000019300F077F8431C01DA8B232B60002CB4
:104A7000DFD00023029A1370DBE7C0463400002029
:104A80000023C25C0133002AFBD1581E704700008E
:104A9000F0B58E6885B007000C00039201939E422A
:104AA0003CD890238A89DB001A4234D00325096957
:104AB00023685B1A0293636902985D43EB0F5D19EB
:104AC000019B6D1001331B18AB4200D91D0053052B
:104AD00032D52900380000F019FB061E09D10C233D
:104AE0003B6040230120A28940421343A38105B0CB
:104AF000F0BD029A2169FFF77FFFA389144A1A408B
:104B000080231343A381029B2661F618266065610A
:104B1000019EED1AA560019B9E4200D9019E3200C4
:104B20000399206800F095FAA36800209B1BA360FE
:104B300023689E192660DAE72A00380000F044FB5B
:104B4000061EE0D12169380000F096FAC7E7C0469A
:104B50007FFBFFFFF0B59FB0029005938B890F009C
:104B600016001B0611D50B69002B0ED1402100F059
:104B7000CDFA38603861002805D10C23029A01383B
:104B800013601FB0F0BD40237B61002306AC63615E
:104B9000203363761033A37635002B78002B01D0B9
:104BA000252B46D1AB1B04930CD032003900029860
:104BB000FFF76EFF431C00D1AEE06269049B944690
:104BC000634463612B78002B00D1A5E00122002310
:104BD0005242626002A9543252186E1C2360E36094
:104BE000A3601370A36531780522544800F026FABB
:104BF000751C00281FD12268D30604D5532302A9AF
:104C00005B1820211970130704D5532302A95B18E0
:104C10002B21197033782A2B16D0350000210A2059
:104C2000E3682A786E1C303A092A4ED9002918D038
:104C300010E00135B1E7414B2268C01A01238340DF
:104C4000134323602E00CEE7059B191D1B680591B9
:104C5000002B01DB099304E05B42E3600223134372
:104C600023602B782E2B0AD16B782A2B35D1059B0C
:104C700002351A1D1B680592002B2BDB0793304E63
:104C800029780322300000F0D9F9002806D040230B
:104C9000801B834022680135134323602978062254
:104CA00028486E1C217600F0C9F900283CD0264B1C
:104CB000002B25D10722059B073393430833059327
:104CC0006369039A9B18636166E7434301219B185C
:104CD0003500A6E701235B42D0E700230A201A0033
:104CE0000135636029786E1C3039092903D9002BFE
:104CF000C5D00792C3E74243012352183500F1E7BC
:104D000005AB00933A00114B2100029800E000BF70
:104D10000390039B0133D3D1BB890B985B0600D46E
:104D20002FE7012040422CE705AB00933A00074BE8
:104D30002100029800F07AF8EAE7C046FC6600001D
:104D4000026700000667000000000000914A0000B2
:104D5000F7B5150001938A680B6900900C00934227
:104D600000DA130022002B6043321278002A01D0AF
:104D700001332B6023689B0602D52B6802332B601E
:104D8000062723681F4027D0230043331B785A1E71
:104D900093412268920630D4220001994332009850
:104DA000089EB047431C25D0062320682A68E16886
:104DB00003400025042B03D18D1AEB43DB171D4064
:104DC000A3682269934201DD9B1AED180027BD42BA
:104DD00020D1002010E00137E3682A689B1ABB420B
:104DE000D2DD22000123193201990098089EB047B4
:104DF000431CF0D101204042FEBD3020E118433178
:104E0000087021005A1C45310978A2184332023338
:104E10001170C1E7220001231A3201990098089EFF
:104E2000B047431CE6D00137D1E70000F0B589B0A8
:104E300004920A0043320593039002920A7E0C000A
:104E40000E9B6E2A00D186E01FD8632A33D008D883
:104E5000002A00D18CE0582A4DD0250042352A7016
:104E600030E0642A01D0692AF7D1196825680A1D43
:104E7000280629D508681A60002803DA2D23029A2B
:104E8000404213706B4E0A274FE0732A74D008D843
:104E90006F2A1FD0702AE0D1202209680A432260BD
:104EA00003E0752A16D0782AD7D12200782145321E
:104EB0001170614E22E025001A684235111D1960FB
:104EC00013682B70012365E008681A606906D3D562
:104ED00000B2D1E719682568081D186008682E0619
:104EE00005D5544E08276F2A1BD00A2719E06D06F6
:104EF000F7D580B2F5E745314E4E0A701868226842
:104F0000011D00681960150621D5D30702D520239D
:104F10001A4322601027002803D1202322689A43D5
:104F200022602300002243331A706368A360002BC1
:104F300058DB0422216891432160002854D1029D4E
:104F4000002B5AD02500337842352B7055E055069A
:104F5000DBD580B2D9E71A680D68101D4969186061
:104F600013682E0601D5196002E06D06FBD5198085
:104F70000023029D23614FE01A68111D1960156816
:104F800000216268280000F059F8002801D0401B79
:104F90006060636823610023029A13703CE0236918
:104FA0002A0004990398059DA847431C3ED0236816
:104FB0009B0715D4079BE068984239DA180037E060
:104FC00022000123193204990398059EB047431C1F
:104FD0002CD00135E368079A9B1AAB42F0DCE9E775
:104FE0000025F7E70028ADD0029D3900FEF71AFD35
:104FF000735C013D2B700028F7D1082F09D123687D
:10500000DB0706D563682269934202DC3023013D49
:105010002B70029B5B1B2361059B07AA0093210059
:10502000049B0398FFF794FE431CB8D10120404233
:1050300009B0F0BD0D6700001E670000C9B28218FC
:10504000904201D10020704703788B42FBD00130A1
:10505000F6E710B5884202D98B18984203D3002393
:1050600007E08B5C8354013AFBD210BDCC5CC45486
:1050700001339A42FAD1F8E770B50500002910D043
:105080000C1F2368002B00DAE418280000F0D4F885
:105090001D4A1368002B05D163601460280000F0DE
:1050A000CCF870BDA34209D9216860188342F3D1BE
:1050B00018685B6841182160EEE713005A68002AFF
:1050C00001D0A242F9D919685818A0420BD1206822
:1050D0000918581819608242E0D1106852684118C6
:1050E00019605A60DAE7A04202D90C232B60D5E799
:1050F00021686018824203D110685268411821600B
:1051000062605C60CAE7C046040A0020032370B5F1
:10511000CD1C9D43083506000C2D1ED20C25A9423E
:105120001DD8300000F088F8254A146821000029B5
:1051300019D1244C2368002B03D1300000F06AF809
:1051400020602900300000F065F8431C2BD10C23AF
:105150003000336000F071F803E0002DDFDA0C233B
:105160003360002070BD0B685B1B19D40B2B03D977
:105170000B60CC18256003E04B688C420DD11360A6
:10518000300000F05AF8200007220B30231D904316
:10519000C31AE7D05A42E250E4E763600C00EFE73D
:1051A0000C004968C3E70323C41C9C43A042E1D020
:1051B000211A300000F02EF8431CDBD1C7E7C046AF
:1051C000040A0020080A0020F8B507000D001600A8
:1051D000002905D11100FFF799FF04002000F8BD58
:1051E000002A03D1FFF748FF3400F7E700F026F864
:1051F0002C00B042F2D231003800FFF787FF041EC6
:10520000ECD029003200FFF7F7FB29003800FFF748
:1052100033FFE3E7002370B5064C05000800236068
:1052200000F014F8431C03D12368002B00D02B603E
:1052300070BDC046800A0020704770470B1F1B6876
:10524000181F002B01DA0B58C0187047044A136866
:10525000002B00D1034B1818106018007047C0468F
:105260000C0A0020880A0020FEE7C046F8B5C046B8
:10527000F8BC08BC9E467047F8B5C046F8BC08BCF0
:105280009E4670470000000001B40248844601BCFD
:10529000604700BF990000205368617270204C5332
:1052A000303133423744483033202331000000008E
:1052B000050000000000000040420F000501000052
:1052C000000000000000000001000100DC520000AE
:1052D00020030164060802000100000000040A0A1D
:1052E0000403060608020000000000000E040E1F62
:1052F000081F0C1F0E0E00001000010E0E0E0F0EE8
:10530000071F1F0E110E1C110111110E0F0E0F1E83
:105310001F11111111111F0E000E040002000100D7
:1053200010000C000104080106000000000000004D
:10533000020000000000000C040600000000000055
:1053400000040A0A1E1309040404040400000000F7
:10535000110611080C0102101111060608000211B5
:10536000101111110901011111040809011B11117A
:1053700011111101041111111111100200080A007C
:10538000040001001000121E0100000104000000D2
:1053900000000000020000000000000204080200FB
:1053A0000000000000040A1F01080502020815049D
:1053B00000000010190410040A0F0108111106065C
:1053C000041F04101011110111010101110408053D
:1053D0000115131111111101041111110A11080203
:1053E00001081100080E0D0E160E02110D060C0913
:1053F000040B0D0E0F160D0E0711111111111F02C6
:1054000004081500000000000004000A0E04020059
:1054100002080E1F001F00081504080809100F04D9
:105420000E1E00000200080816110F01110F0F1DBB
:105430001F040803011515110F110F0E041111158A
:10544000040A0402020800000010130119110711D8
:105450001304080504151311111913010211111178
:105460000A11080104100800000000000000001FDD
:1054700010021500020815040600000413040410AD
:105480001F10110211100606041F0404151F11013C
:10549000110101111104080501111911011505105F
:1054A000041111150A04020204080000001E110173
:1054B000111F021E11040803041511110F1E010E05
:1054C00002111115041E040204080000000000006F
:1054D0000000000A0F190900040404040400060275
:1054E000110402110811110211080604080002003B
:1054F00015111111090101111104090901111111ED
:105500000109091004110A1511040102080800001C
:1055100000111111110102101104090504111111DA
:105520000110011012190A150A10020204080000E5
:10553000000000000004000A041816000802000021
:10554000020006010E0E1F0E080E0E020E060002CD
:10555000100001040E110F0E071F010E110E06118F
:105560001F11110E0116110F040E040A11041F0E53
:10557000100E001F001E0F0E1E0E020E110E060949
:105580000E11110E0110010F0C16040A110E1F0C42
:105590000406000000000000000000000000000001
:1055A00000000000000000000000000000000000FB
:1055B00000000000000000000000000000000000EB
:1055C00000000000000000000000000000000000DB
:1055D00000000000000000000000000000000000CB
:1055E00000000000000000000000000000000000BB
:1055F0000000000000000000000000000C56000049
:1056000020030164080802000100000000186C6C0F
:1056100010CE3808600C0000000000007C307C7C5C
:10562000C6FE7CFE7C7C000070001C7C7C7C7E7C4A
:105630007EFEFE7CC63C78C606C6C67C7E7C7E7C32
:105640007EC6C6C6C6C6FE7C007C10000C000600E6
:1056500060003800060000060C000000000000009A
:10566000000000000000003018188C00000000004E
:1056700000186CFEFC6A2C1830186C18000000C072
:10568000C638C6C6C606C6C0C6C61818387C38C6D0
:10569000C6C6C6C6C60606C6C618306606EECEC65E
:1056A000C6C6C6C618C6C6C6C6C6C00C0660380082
:1056B0000C00060060000C00061830060C0000000C
:1056C0000000000018000000000000181830D6008C
:1056D00000000000001848FE162E2C18183038184C
:1056E00000000060C63060C0C6060660C6C6181856
:1056F0001C7C70C6F6C6C606C6060606C618303638
:1057000006FEDEC6C6C6C60618C6C6C66CC6600C91
:105710000C606C00043C3E3C7C3C3C3C3E00006623
:105720000C6E3E3C3E3C363C186666C666667E188D
:1057300018306200000000000018006C7C10DC00D3
:105740001830FE7E1C7E0030C6303070FE7E7E300B
:105750007CFC00000E00E070F6FE7E06C61E1EF603
:10576000FE18301E06D6F6C67EC67E7C18C6C6D685
:1057700038FC300C1860C6000060660666660C6671
:10578000661830360CD6666666666E067C6666C639
:105790003C66300C0060000000000000000000FECD
:1057A000D0E866001830387E1C7E1C18C63018C041
:1057B000C0C0C618C6C018181C7C703076C6C60695
:1057C000C60606C6C618303606C6E6C606B6C6C043
:1057D00018C6C6FE6CC0180C30600000007C66065F
:1057E000667E0C7C6618301E0CD666663E56063CFD
:1057F000186666D6187C18181830000000000000E3
:10580000001800FE7EAC660030186C1818001C0CE6
:10581000C6300CC6C0C6C60CC6C61818387C3800C0
:1058200006C6C6C6C60606C6C618366606C6C6C6B6
:105830000666C6C618C66CEEC6C00C0C606000FEDC
:105840000066660666060C60661836360CC6666626
:105850000626066018663CD63C600C18183000001E
:10586000000000000018006C10E6DC00600C00185E
:105870000C001C067C78FE7CC07C7C067C7C000CCA
:1058800070001C307CC67E7C7EFE06FCC63C1CC6BE
:10589000FEC6C67C06DCC67C187C38C6C67EFE7C8E
:1058A000C07C00FE007C3E3C7C3C0C3E66701C666E
:1058B00038C6663C065C063E707C18FC663E7E3050
:1058C00018180000000000000000000000000000A8
:1058D00000000000000000000000000000000000C8
:1058E00000000000000000000000000000000000B8
:1058F00000000000000000000000000000000000A8
:105900000000000000000000000000000000000097
:105910000000000000000000000000000000000087
:10592000000000000000000000000000080911084D
:105930000000000007000000070503003D00000014
:105940000100000000000001010000005C5900009F
:10595000000C02600C1002000100000000003F007B
:10596000FF03FC0FCF03FF03FF033F00CF00F30053
:10597000F003F003000000000000F003FF033F000D
:10598000FF03FF03FF03FF03FF03FF03FF03FF0307
:1059900000000000F00300003F00FF03FF0FFF03C3
:1059A000FF03FF03FF00FF03FF03FF03FF033F00AD
:1059B000F003FF033F00FF0F3F0FFF03FF03FF0351
:1059C000FF03FF03FF03FF03FF030F0FFF03FF03AB
:1059D000FF03C3003F00C300FC0000003F00FF03C3
:1059E000FF03FF03FF00FF03FF03FF03FF033F006D
:1059F000F003FF033F00FF0F3F0FFF03FF03FF0311
:105A0000FF03FF03FF03FF03FF030F0FFF03FF036A
:105A1000FF030C033300C300FF0F000000003F0032
:105A2000FF03FC0FCF03FF03FF033F00CF00F30092
:105A3000F003F003000000000000F003FF033F004C
:105A4000FF03FF03FF03FF03FF03FF03FF03FF0346
:105A500000000000F00300003F00FF03FF0FFF0302
:105A6000FF03FF03FF00FF03FF03FF03FF033F00EC
:105A7000F003FF033F00FF0F3F0FFF03FF03FF0390
:105A8000FF03FF03FF03FF03FF030F0FFF03FF03EA
:105A9000FF03C3003F00C300FC0000003F00FF0302
:105AA000FF03FF03FF00FF03FF03FF03FF033F00AC
:105AB000F003FF033F00FF0F3F0FFF03FF03FF0350
:105AC000FF03FF03FF03FF03FF030F0FFF03FF03AA
:105AD000FF030C033300C300FF0F0000000033007E
