:100000000020002055010000810100008101000056
:1000100081010000810100008101000081010000D8
:1000200081010000810100008101000081010000C8
:1000300081010000800100008101000081010000B9
:10004000810100001D3200000D230000810100002D
:1000500005320000810100008132000081010000B2
:100060008101000081010000810100008101000088
:10007000692A000081010000810100008101000067
:100080008101000081010000810100008101000068
:100090008101000010B5064C2378002B07D1054BD9
:1000A000002B02D0044800E000BF0123237010BDE4
:1000B00098000020000000002C550000044B10B5F3
:1000C000002B03D00349044800E000BF10BDC04628
:1000D000000000009C0000202C550000164B002B57
:1000E00000D1144B9D46402292029A1A924600215A
:1000F0008B460F461348144A121A03F0F0FB0F4BBD
:10010000002B00D098470E4B002B00D098470020C2
:10011000002104000D000D48002802D00C4800E02A
:1001200000BF03F0AFFB2000290002F045FF03F001
:1001300093FBC046000008000020002000000000E3
:100140000000000098000020700A0020000000005D
:1001500000000000064880470649074A074B9B1AE3
:1001600003DD043BC858D050FBDCFFF7B7FF0000AD
:1001700069020000385500000000002098000020AF
:10018000FEE7C0460048704700366E0110B5244AAD
:100190002449D36A0B40802149018B423CD014D8BA
:1001A000802109018B4223D0E021D368C9000B4094
:1001B000802189008B4229D01CD8002B2AD00139FC
:1001C000FF398B4224D0002008E0802189018B4236
:1001D0000BD08021C9048B42E6D113481168C903B2
:1001E000490F013103F08CF810BD104B1868F5E78A
:1001F0000F4BFBE7C02189008B4205D00131FF3155
:100200008B42E0D10B48E9E70B48E7E70B48E5E70D
:100210000B48E3E70B48E1E780200002DEE7C04639
:1002200000800C40003C000400366E0108000020F5
:1002300004000020406F4001809FD500C0D8A70077
:1002400040B56400804F120010B5FFF79FFF0F22EA
:10025000034B5B681340D840024B186010BDC0468A
:1002600000800C4000000020014A024B9A60704759
:100270000000000000ED00E0802000027047FA203E
:1002800080007047014B18687047C0460800002086
:1002900010B5084B1C78002C01D0002010BD0122A5
:1002A0001A70054BE358002BF7D098470434002808
:1002B000F7D0F3E7E40000200C00002010B50A4B53
:1002C0000C001B78002B0BD000280BDC2C2201002B
:1002D0005143064B2000591803F0F8FA002010BDD6
:1002E0000348FCE70348FAE7E4000020B4000020DC
:1002F000050011800200118010B50B4B01001B7826
:10030000002B0DD0094A1368002B0BDC581C106021
:100310002C2253430648C01803F0D8FA002010BD21
:100320000448FCE70448FAE7E4000020E00000206D
:10033000B4000020050011800100118030B5802933
:100340000DD1084912010C68074DA2180020AA42DD
:1003500002D91860054830BD1C600A60FBE70448FC
:10036000F9E7C04614000020E508002001001180D4
:1003700002001180004870470400118010B500F0A1
:100380001FF900F0D9F8002010BDF8B5047C1D005D
:10039000013C631E9C410E0000276442E4B2380118
:1003A0003018AF4201D10020F8BD1022210003F027
:1003B00096FA0137F3E7F7B500200F000A2100F0A5
:1003C0002DF9062000F001F9089B02215D1C6B4607
:1003D0009E1D0123ADB22A02134330003380002456
:1003E00000F0CCF8099B200138189C4208D102206B
:1003F00000F0EBF80A21002000F01CF90020FEBDFF
:10040000102100F0BBF8099B013BA34208D1012356
:100410005B42022130003380013400F0AFF8E1E7A5
:10042000FF226B1C1B191B021343F2E710B50321BB
:10043000052000F00BF910BD10B5080008210028B8
:1004400004D0002000F0EAF8002010BD00F0F2F81F
:10045000FAE7000010B58CB000F0B2F800F06CF8CC
:1004600000F0C4F800230C211A00042000F0C8F8A2
:1004700000230A211A00042000F0C2F800230A21F8
:100480001A00180000F0BCF8002308211A00180018
:1004900000F0B6F8002303211A00052000F0B0F8A0
:1004A000402200211C4800F095F8041E31D11B4B5E
:1004B00001A80193012303747F334360C360836009
:1004C000174B44744361174B8361174BC361174B40
:1004D0000362174B4362174B8362FFF70DFF041E45
:1004E00017D1082100F09AF80A21200000F096F8B0
:1004F000062000F06AF86B46981C04230221038052
:1005000000F03CF8022000F060F80A21200000F022
:1005100091F820000CB010BD2D04000058410000DF
:10052000390400003D03000075030000B70300001C
:100530008B0300007D03000030B587B06C462200BD
:100540000A4B23CB23C223CB23C2094D01210948E7
:1005500001F080F8084B28002100A36001F092FE12
:100560000A2300206B6507B030BDC0467041000013
:1005700000C0004000320400E0C8100070B5012641
:1005800004000D00002D06D120230C490A691A42EF
:10059000FCD0002070BD012D01D0344206D021785E
:1005A000064801F0A7FE013D0134EBE7218803482E
:1005B00001F0A6FE023D0234E4E7C04600C0004060
:1005C00010B500F01DF9002010BD10B500F0EEF9D7
:1005D000002010BD10B502F057FE431E9841024B9B
:1005E0004042184010BDC0460200138010B50121E2
:1005F000024801F02FF8002010BDC0460082040020
:1006000010B5141E05D1C0B2042201F055FB200024
:1006100010BD0148FCE7C046010013800123C2B2AF
:1006200024208B405043024A801803610020704709
:10063000006000400123C2B224208B405043024A94
:100640008018436100207047006000400123C2B25F
:1006500024208B405043024A801883610020704759
:100660000060004030B585B0040001211D4800F055
:10067000F1FF1D4B22689A4232D101211B4800F044
:10068000E9FF6179207901230A2201F015FBE17964
:10069000A07901230A2201F00FFB012263790921CD
:1006A0009A4024232079124D4343124818185B19AD
:1006B000013902601A600029FAD10323227A2068E6
:1006C0001202134383636A46012313705370236934
:1006D00069460293E3680193237D137301F066FB7F
:1006E00005B030BD4081040000A0004000B204000D
:1006F000146000401060004070B5050001F020FD5E
:10070000054C012802D1013C002C00D170BD28000D
:1007100001F068FBF5E7C046E193040070B588B0CE
:10072000150003AA11800421518001A90B70022435
:100730000123049102AE1381148211000696FFF783
:10074000DBFF002803D000232B6008B070BD03211D
:10075000337872781B028A439B182B602000F4E7E1
:10076000F8B51C00E52306000F001500FFF7D6FFC3
:10077000022802D001204042F8BD2A680B4B390004
:1007800053430B4A5B0B9B182B602200E023300085
:10079000FFF7C4FF0228EDD12268064B0020534327
:1007A000054A5B139B182360E6E7C046093D00003D
:1007B00090E8FFFFCD550000FE48FFFF30B589B03F
:1007C0001400042203AB198069465A800B4A049135
:1007D0000A8002221A8106321A82190001AD06959A
:1007E000FFF78AFF0023984205D10133002C02D085
:1007F0002B7823700123180009B030BDFCC9FFFF1E
:10080000F0B58DB0032261490BA803F05FF8002218
:100810005F4C236C02925B0705D401215D4800F018
:1008200019FF012302935C4800F054FF4023E26A61
:1008300003211A4007905848019201F0C1F8574827
:1008400000F056FE802108904900544800F08CFECC
:10085000A36D002201240392234204D121004F48BA
:1008600000F0F8FE039401F073F901264C4C099056
:100870002568354000D16BE0236880210493A3688C
:10088000484A0593E368E569069300232360E36122
:100890000733A3617A33FF334901D15000230BA8FA
:1008A000837001F0A7FC404B8022190052011A60AE
:1008B0001A6852001A600AD0606862689042FCD0E0
:1008C00060680A68013AFDD862689042F0D0364B01
:1008D000092118001A6852081A601A68013900299B
:1008E00001D0520839D1099801F036F9002E48D0CC
:1008F00008992A4800F038FE012001F071FC059BA0
:100900000020A360069BE360049B2360E56101F087
:1009100067FC039B002B03D00021204800F09AFEC7
:10092000079B032B03D019001B4801F049F8019BDA
:10093000002B04D11A001900012001F00BF8029BD2
:10094000002B03D00021134800F084FE0DB0F0BD51
:100950000695059504952E00A0E71F6817431F60B4
:100960006768BC466768BC45FCD06768BC460768DA
:10097000013FFDD86768BC45B0D007689743076062
:10098000ACE7300001F022FCC3E7C046884100001C
:1009900000800C40D0233E0002001E0080061200A2
:1009A0000000084000E100E01800002008490300B2
:1009B000002B0CD0013B88221202003253430A68FC
:1009C000D80AD20A5043800901D00138FDD87047B7
:1009D00018000020044B1A780123002A02D0034B90
:1009E000036000231800704720090020E60800205B
:1009F000F0B506000C4804780120002C13D00B4CF5
:100A0000B51827880330BD420DDC6788CD18BD427C
:100A100009DC0130002A06D0002B04D00020A6807B
:100A2000E18022816381F0BD20090020E6080020DA
:100A3000F0B589B00193644B06001B780592012044
:100A4000002B23D0614B1B68002B1FD0604A5589B7
:100A500014896D1A6C43019DA41BAC4200D2AFE017
:100A60005C4D6C7C002C00D0ACE0AD68ED080695C8
:100A7000D288049089188AB203922A0003994A43C3
:100A80009B180293019B002B02D1180009B0F0BD06
:100A90004F4B1D89019BAD1B9D4200D91D00019B41
:100AA0005B1B01934B4B1B7C012B0ED8484A908853
:100AB0000722301880B2104203D1144201D195426E
:100AC00043D8444A4619B04216D31F220398039BC9
:100AD000024004984049904002005B119B00585826
:100AE000002602435A50069A039B9446013303930F
:100AF000029B63440293C5E70599E310C95C072391
:100B000023401941157C049B1940C308012D0AD1CB
:100B100000290CD10299049DCB18072101408D407A
:100B20001978A9430CE0002DF4D10029F2D10299E3
:100B3000049DCB18072101408D4029001D782943D1
:100B40000130197080B20134BDE7029AC708EE087F
:100B5000D719F20007922A00083A9446012B29D1AE
:100B6000059BE11059183200380002F0AFFEF30087
:100B7000E418079BED1AA8D0049BBE19AB40059F53
:100B8000E110795C134FDBB2581E3F7CC0B2327863
:100B90000140012F11D15B421A400A43327064199F
:100BA00093E7059AE310D35CC108DB4308307B541C
:100BB00080B208346045F4D9DBE702438A43EDE7AD
:100BC000032063E70A2061E72009002024090020B0
:100BD000E6080020F4080020FC090020F0B587B0EA
:100BE0000593504B04001B780120002B18D04E4B6E
:100BF0001B68002B14D04D4A557C002D00D08EE090
:100C00009268D20803924A4A039FD28802908918B8
:100C10008AB257430192DF190D9B002B02D11800B5
:100C200007B0F0BD424A0D9B15892D1B9D4200D98E
:100C30001D000D9B5B1B0D933C4B197C01292DD88E
:100C4000059B58424341DBB25E1EF6B2012901D03A
:100C50005E42F6B290882418A4B2072D32D86519E6
:100C6000002E19D1A54219D907220299224091409C
:100C7000E308FB181A7801348A431A70A4B2F1E72A
:100C800007220299224091400A00E308FB181978D4
:100C900001340A431A70A4B2A542F1D81F22019868
:100CA000019B024002982349904002005B119B0087
:100CB0005858002402435A50019B01330193039B6F
:100CC000FF18A9E707222240E4083C19002A0CD0AB
:100CD000029B20789340DBB25942013B31400340F4
:100CE0000B43083A2370AD180134EB0804930BD082
:100CF0001A002000310002F0F2FDEB08DB00ED1AD3
:100D0000049BE418002DC9D0029B2278AB40DBB2D3
:100D10005942013B0A401E4016432670BEE70A2096
:100D20007EE7C0462009002024090020F4080020A6
:100D3000E6080020FC09002070B504000B480123E0
:100D40008569002D0FD00A4EC26833004168A8475C
:100D500032680B23002A06D02260FF2110220548AA
:100D600002F0BDFD0023180070BDC046F40800204D
:100D700024090020FC090020F7B50024184D2B7829
:100D8000A34229D1FFF784FA041E25D1154E310064
:100D9000FFF794FA041E1FD1134F3800FFF7CCFF62
:100DA000041E19D13B68002B18D0F368716898B203
:100DB00003000E4A8FB25080508117809480D480F7
:100DC000178101227B432A702100019300942300A4
:100DD00022002000FFF702FF2000FEBD0B24FBE7EE
:100DE00020090020F408002024090020E608002043
:100DF000F0B585B0244B01259968CB080293234BAD
:100E00001C6800231F002048FE18C268964209D3C0
:100E1000002B2BD1102200211C4802F060FD002085
:100E200005B0F0BD012222400AD001331F21FA187B
:100E300064080A42E7D1154AA9008C580135E2E757
:100E4000002B11D00299794303911149096801934C
:100E50008C46039900976144076A4368B8470028A5
:100E6000DED1771C0300E1E70137DFE70299084A8A
:100E700079431268019300975118046A436800226D
:100E8000A0470028C6D0CBE7F4080020FC090020CA
:100E90002409002010B503000520002B06D00021F6
:100EA0001A68080053881288FFF7A2FD10BD73B5B9
:100EB00005000520002D13D028006C68FFF7EAFF1D
:100EC00000280DD12D68230A2E896989220C7143CF
:100ED000E4B20191DBB2D2B200940100FFF77EFED2
:100EE00076BD10B502000520002A0DD0D36898B257
:100EF000136999B293695269013301325B1A121A6C
:100F00009BB292B2FFF774FD10BDF8B5052300281F
:100F10001DD000291BD00E688C68013BA64216DA52
:100F20004D68CA68954212DA013B002E0FDB002D96
:100F30000DDB01680F88BC4209DA49888A4206DA6B
:100F4000C660056144618261FFF7CBFF03001800B2
:100F5000F8BD000030B587B00524051E1CD0002365
:100F600043600F4B836001A8FFF734FD041E13D1CB
:100F7000019B02901A880390013A2B6004925B88CF
:100F800002A9013B28000593FFF7BFFF041E03D110
:100F90000449280000F041F9200007B030BDC046E8
:100FA000FFFFFF00BC440000F7B5052504000E005C
:100FB0001700002812D00C3000F047F8043D00283C
:100FC0000CD0A468B9B2230A220CE4B20195DBB2BA
:100FD000D2B2B0B20094FFF701FE05002800FEBDBA
:100FE000F7B505250E0017001C00002811D00C30A5
:100FF00000F02BF8043D00280BD0230A220CE4B2A9
:101000000195DBB2D2B2B9B2B0B20094FFF7E6FDFF
:1010100005002800FEBD70B51D0004000800110089
:10102000049BAAB29BB289B280B2FFF7E1FC002810
:101030000AD1049B059A6B430100FFF7F9FC0028D5
:1010400002D12000FFF74DFF70BD10B5031E0FD079
:10105000046800238C420BDC84688C4208DB416806
:10106000914205DCC168D00FCB1791424341DBB2FE
:10107000180010BDF0B589B006930EAB1B780400C4
:10108000059207930520002C24D00B00203B033849
:101090005E2B1FD82200283212788BB282421BD1DD
:1010A0000A273A2903D00137303B202915D1238C58
:1010B0000220BB420ED90026E3690493069B0193EC
:1010C000019B0699A21D5B1AD27F9BB29A4206D859
:1010D0007042704109B0F0BD203B9FB2E7E7E31CCE
:1010E000DB7F012B05D0022B20D0049ABB009B583C
:1010F00001E0049BDB5D0293059B0393039B059A30
:101100009D1A631DDB7FADB2AB4213D82200631D75
:101110000832DB7FD27F9B189D4229DB231DDB7FBA
:10112000FF18019BBFB201330193C9E7049A7B000A
:101130009B5AE0E70122029B13420FD0019A0399C8
:101140002000FFF731FF0128C4D843425841361828
:10115000029B5B080293039B0133CEE7079B002BA6
:10116000F6D06368019A03992000FFF739FFEAE798
:10117000079B002B0BD0059B019A5919200063682F
:10118000FFF72EFF0128A5D84342584136180135F4
:10119000ADB2BBE7F0B587B003930CAB40CB050015
:1011A0001B7805200593002D13D0002911D02B00AA
:1011B00028331B780338002B0BD08B1804930023A3
:1011C0000C00039F0293049BA34204D10298434264
:1011D000584107B0F0BD21780A2908D1AB1DDB7F4B
:1011E000039F9E19EB1DDB7F9E190134EBE7059BE6
:1011F0003A00009328003300FFF73CFF0128E8D8AD
:10120000434258412A00029B08321B1802936B1D6F
:10121000DB7FD27F9B18FF18E7E710B50523002876
:1012200006D01C301022002904D102F058FB0523FF
:10123000180010BD02F04AFB0023F9E770B5002A40
:101240000DD11E4C1E4D466BA84222D1062932D824
:10125000080002F041F807101F2130302B00102247
:10126000184CEFE71849FE200B68C00103407F20AF
:101270000968014008E0FE201349C0010B680968B5
:101280001B0C49020340490E0B4393403440234357
:101290006B6370BD0D49E6E70C490B680868FE21D9
:1012A0001B0CC901194043025B0EEDE77F21084B7F
:1012B0001B680B40E9E70023E7E7C0468080FFFF9B
:1012C00000200040FFFF8080B481E00FB881E00F74
:1012D000BC81E00F70B502230C00436000228978C6
:1012E0000500FFF7ABFF237862781B071205134355
:1012F000E27812011343227912021343A279002AE1
:1013000002D0802252041343E279002A01D0042241
:1013100013436279002A01D002221343227A002A61
:1013200001D001221343A27812041343EB6070BD75
:1013300010B5FA230400DB0108009C4200D21C0017
:101340000A4B9C4200D91C00002802D1084800F03A
:1013500075FA631E1818210001F0D2FF002803D08F
:1013600001387F2800D97F20C0B210BD405DC60083
:101370004081040070B50E7905000C00002E1FD1CD
:1013800031001448FFF7D4FF06000A23FE226B60E9
:101390002178637809061B011943A378D203194306
:1013A000E37836021B0413401943FE23DB011E4081
:1013B00063793143002B01D008231943296070BDA4
:1013C00000210448FFF7B4FFFA200021C001FFF715
:1013D000AFFFDAE7405DC600E0228021184BD20063
:1013E0005B69890013408B421DD007D8002B0DD0BC
:1013F00080225200934220D0002008E0C0218900C2
:101400008B4205D09342F7D10E4800E00E4870475A
:1014100012200E4BDB6C1B0E984280410C4B184087
:101420000C4BC018F3E71220084BDB6C1B0E9842E4
:101430008041094B1840094BF3E70948E7E7C046EC
:1014400000800C40406F4001809FD500B081E00FCC
:10145000400D030040420F0080E5F9FFC0CF6A0055
:10146000C0D8A70010B5094B094A5C68002190421A
:1014700005D9084A0131904201D90631214007209F
:101480005A6882430A435A6010BDC04600000C40AF
:101490000024F4000048E80170B5064C064BE56BEB
:1014A000E363FEF76FFEFFF7DDFF002D01D00023A1
:1014B000E36370BD00000C40711B0000034B5A6DCC
:1014C000D20702D41A6D0242FCD1704700800C4052
:1014D00070B5054C054BE56BE363FFF7C3FF002DCB
:1014E00001D00023E36370BD00000C40711B0000BD
:1014F00000B503000006000F01380C282CD801F0BD
:10150000EBFE072B2B0D2B2B131E242B2B2B160046
:10151000124B1868C003400F013000BD0F4B9B6891
:101520000F221340012008E00C4B5B68F8E7012014
:101530000A4B5B681B0A03401B189840EDE7084AFA
:10154000934209D1054B9B6EEAE7064A934203D1C9
:10155000024B03221B6FE4E70120DEE700800C4012
:101560008006120090071A0010B503000006000F55
:1015700001380C000C2823D801F0AEFE07222217F8
:101580002222303E502222222300FFF785FF2C4AE0
:101590002C491368013CA4030B401C431460FEF764
:1015A00053FE0021FFF794FF0AE0080002F01EF846
:1015B0000F2223498B6893431032101A1843886016
:1015C00010BD080002F012F81E231D49181A4A68BF
:1015D0001D4B0002134018434860F1E7FFF75CFF22
:1015E000200002F003F80F2215494B689343103294
:1015F000101A18434860D2E7144A9342E0D10420FD
:10160000FFF75CFF200001F0F1FF0F220C498B6E09
:1016100093431032101A18438866D1E70C4A93425C
:10162000CED14020FFF74AFF200001F0DFFF032268
:1016300003490B6F93431C32101A18430867BFE726
:1016400000800C40FF3FFEFFFFFEFFFF8006120000
:1016500090071A0070B505000005000F01380E0054
:10166000092815D801F038FE0515251414181B1E7D
:1016700014220020104CED03ED0E002801D0FFF7DE
:101680001DFF0122AA40AE40236893431E432660FB
:1016900070BD0020094CEEE70120094CEBE710205B
:1016A000084CE8E78020084C4000E4E70020074CA5
:1016B000E1E70020064CDEE708800C4044800C4047
:1016C00058800C4060800C4064800C4078800C4056
:1016D00040800C4000B50F2318400138062805D87B
:1016E00001F0FAFD0620334604645200002000BDDC
:1016F0002F4B304ADB6A0320134080225201934271
:10170000F5D006D88022013012019342EFD0052097
:10171000EDE78022022092019342E8D08022093036
:10172000D204F2E70321224A936A0B401800022BED
:10173000DDD006208B42DAD00800012BD7D0936A87
:101740000238DB03D3D50B30D1E70C221849022035
:101750008B6A1340082BCAD004309342C7D0033899
:10176000042BC4D08B6A0238DB02C0D51000BEE760
:1017700030200F4B9B6A03402D38102BB7D0203BF5
:10178000584258410130B2E7E0208022084BC002A5
:10179000DB6A9202034003209342A8D080220730E4
:1017A000D2029342A3D0044A9B18E9E707209EE7A0
:1017B00000800C40003C00040000FFFF10B5040056
:1017C000FFF788FF1A498C420AD01A4B9C420CD072
:1017D0000300032B2AD8180001F07EFD180C111409
:1017E0000320154B9B6A0340F3E7134B9B6A1B07CF
:1017F0009B0FEEE7FEF740FD0300180010BDFEF75B
:1018000041FDF9E7FEF720FD4308F6E78C4202D0E0
:10181000084A9442F1D1084A1020926A8C4200D0C2
:101820000430C240E9D0FEF72AFDE5E70023E4E7F3
:1018300002001E000300200000800C4070B5F8225A
:101840000300902192030400134049038B4245D0CA
:1018500017D88022D202934235D007D8002B53D01C
:1018600080229202934236D0002070BDE022120303
:10187000934242D0802252039342F5D1FFF7ACFD50
:10188000F3E7802189038B422ED00BD8D02252035C
:1018900093422BD0F02252039342E5D12748FFF721
:1018A0008DFFE2E7982189038B4230D09342DBD150
:1018B000FEF7CAFC05002000FFF71AFE0100280011
:1018C00001F01EFDD1E7FEF761FC1D4B9B680F2266
:1018D0001340D840C9E7FEF7B7FCC6E71748FFF743
:1018E0006DFF174B9B6EF2E71648D8E71548FFF7D8
:1018F00065FF134B03221B6FEAE71348FFF7EAFE6D
:101900000728BBD00928AFD1FEF740FCADE70F4850
:10191000FFF7E0FE02380828A6D801F0D3FC05083E
:10192000A5A5A5A5A5F50B00FEF7ACFC9DE7FEF768
:10193000A3FC9AE7064B186897E7C04602001E0012
:1019400000800C400300200006000E000733260034
:101950001C00002030B5052813D801F0BDFC1B1772
:1019600003271321082004230324134D002921D029
:101970002B62002A05D00123A34010490A681A42AD
:10198000FCD030BD202010230524EEE7802040232A
:101990000724EAE78020802380005B000924E4E735
:1019A000802080230001DB001624DEE701230220D3
:1019B0001C00DAE72862E4E700800C402C800C4031
:1019C00070B50F250540681E0C0006281ED801F0D2
:1019D00083FC042929631D1D7F00881E092815D852
:1019E00001F07AFC1D05151814141414141B0120A1
:1019F000032401221100FFF7ADFFFFF74DFD4C4B13
:101A00005C62FEF721FC0021FFF762FD70BD022041
:101A10000400EEE703200124EBE70520F8E70020AF
:101A20000424E6E7481E0B28F0D801F04BFC2B13EA
:101A30001BEFEF23EFEFEFEFEF06012200233C4C0B
:101A4000A16A022D21D13B480140194313040B43E5
:101A5000A362DBE7012200201100FFF77BFF0022D9
:101A60000223ECE7012211001000FFF773FF0022B0
:101A70000123E4E70421304A13680B43136000227A
:101A80000323DCE700221300D9E712059B00134370
:101A90002A4A0A401343DBE7022905D0032910D064
:101AA0000129B3D1002404E0012200201100FFF736
:101AB00051FF30211E4A2401936A8B431C439462D8
:101AC000A4E7012211001000FFF744FF0124F0E712
:101AD000032911D00A291DD0022997D10122002003
:101AE0001100FFF737FF4022114B5A628022520249
:101AF000D96A1142FCD089E7012211001000FFF7DA
:101B000029FF60220A4B5A6280229202D96A11424E
:101B1000FCD07BE7012205201100FFF71BFF80228C
:101B2000034B5A628022D202D96A1142FCD06DE77F
:101B300000800C40FCFFFEFF40800C40F3FFEFFFF5
:101B4000EFF3108072B67047002800D162B670477C
:101B5000EFF3108072B6704710B5FFF7F5FF10BDB8
:101B600010B5054B1120DA6A044B1A60FFF7B2FD7D
:101B7000034B187010BDC04600800C40280900209F
:101B80002C090020F8B556218026104F104B114C1F
:101B9000FD6FFB672368FF311940F600DB0A0E4832
:101BA00033400B4303620D4B06001978052902D020
:101BB0001120FFF705FF012322681A4201D10222FA
:101BC00032621D4201D00023FB67F8BD08800C4043
:101BD0000E5800002809002000800C402C0900202D
:101BE00070477047F8B5051E01D0FFF7B9FF042311
:101BF0000F4A104E11690B43136134680E4B1C40A1
:101C00000E4BDC67FFF7ECFFFFF79AFF070002F0CF
:101C10009BFA3800FFF798FFFFF7E3FF3460002DD1
:101C200002D0FFF7AFFFF8BDFEF70EFBFBE7C046A3
:101C300000ED00E000E100E094A3F7FF04E100E024
:101C4000F7B508A90E7809A901930C78072A21D8BD
:101C5000134D97000723BB40B8402968964099432D
:101C60000843286001259540019BE9439340944037
:101C70000C4F38680840184338600B4803680B4025
:101C800033430360094B1D62094B1868014021432F
:101C90001960F7BD1700083FBF00064DDAE7C046E0
:101CA00000610040086100400C610040FC600040A1
:101CB0001061004004610040F0B5002A08D02424DF
:101CC00001254443194E8D40A419002B1CD02561D9
:101CD00024244443154D6419072917D80F268F0073
:101CE000BE406568B5431600BE4035436560002AB6
:101CF00009D101328A40110024224243002B11D025
:101D00000A4BD2181161F0BD6561E1E70F27084E5B
:101D1000A5688E19B600B740BD431700B7403D43D4
:101D2000A560E4E7014BD2185161ECE70060004088
:101D3000F8FFFF3FF8B5050014000800002A26D080
:101D400003262968124F1E40394029602A68330251
:101D50003A4013432B60002805D10E4B9D4202D11F
:101D60000D48FFF76BFD2B680C4B995D6143002913
:101D70000DD0A400E4436418201801F0C1FA2B68C8
:101D800001389B0702D5002800D101302861F8BD39
:101D9000FFFCFFFF00A0004000B20400EC47000081
:101DA00001220368934319430160704770B5002313
:101DB00043630B4B0D0003630123497804004B4040
:101DC000022102685B008A43134303602B7BAA68ED
:101DD0006968FFF7AFFF29782000FFF7E1FF70BDCA
:101DE000FFFF0100F0B585B0A74A904200D0A1E105
:101DF00000252E00A5498B68087802934B880C7942
:101E000003900195C020976AC00007421DD0019839
:101E10009E49002800D04B80002D00D00C71BB05DE
:101E20000FD5FD234B7009230B7037E001260320EB
:101E30000390E7E7019500232E00F8E701250195BF
:101E4000E0E77B05EFD5FE23ECE70398082800D9EF
:101E500064E101F04BFA0900390081009600B800F6
:101E6000D30009011D0150018848002E01D0002631
:101E70000670019E002E00D04380002D00D004711A
:101E8000029B58881B88C40618D506201B0A0340ED
:101E9000EA30034301200870536250607B4B0120FD
:101EA0001978092908D10021516301229A568242EA
:101EB00000D159700120185605B0F0BDFE24234012
:101EC0008007E7D50120E4E7802007420CD0019E7F
:101ED0006E48002E00D04380002D00D00471802376
:101EE00013637F334B709EE0402007420BD167495C
:101EF0003F38002E3AD10198002800D04B80002DA9
:101F0000CCD00C71CAE7106302984088C7060DD583
:101F1000019E5E48002E00D04380002D00D0047149
:101F200002230B70029B1B785362B7E7800725D50D
:101F3000019E5648002E00D04380002D00D0047131
:101F4000072308790B70029BC00018180389012031
:101F50008342B1D1082369E080200742B7D14020F5
:101F6000074205D149493E38002EC4D00870C2E767
:101F7000106302984088800700D557E701260520A6
:101F800056E74248002E01D003260670019E002E1F
:101F900000D04380002D00D00471029B5C881B8818
:101FA000E0060DD506201B0A0340EA300343042057
:101FB000044201D001242343087001215160B3E79A
:101FC000FE200340F3E78020074200D07FE7402057
:101FD000074204D12D493C38002E8CD0C6E710634F
:101FE000029840884007C9D501982849002800D0A8
:101FF0004B80002D00D00C71072315E7029FE000F5
:102000003F183F899F421AD80420029B01345B8805
:10201000E4B218400125002800D00BE72B4007D080
:102020001A4B58801C7108230B70063B536035E730
:10203000012C00D802E7154843800471F3E7134FE1
:10204000002E01D005263E70019E002E00D07B8020
:10205000002D00D03C71029C201840685C1CC35CC1
:102060004C8053620623DFE68020074200D02EE733
:102070004020074205D10549002E00D13BE73A3800
:1020800074E710637AE7C04600A0004030090020E2
:102090002A488446002E02D00720664630700198F8
:1020A000002801D060464380002D01D063461C719A
:1020B000BB0600D4F2E60879029BC0001818038919
:1020C0004C88D569A34203D94068661C4E800555EB
:1020D00060464088834204D8012BA4D10733536063
:1020E000A1E704215160012B00D8D7E6013B9842BB
:1020F00000D0D3E62EE71149002E01D00820087049
:102100000198002800D04B80002D00D00C71802356
:102110005B001F4200D1C1E6136384E6019E0748BD
:10212000002E00D04380002D00D00471FB234B70A3
:10213000F23B79E604204042BEE6C046300900206A
:1021400010B5184B984202D00420404210BD9A6846
:10215000D20701D520225A604A88900702D5088903
:102160000028F1D0520702D50A8A002AECD00020BC
:1021700001240D4A10705470508010719160C0227B
:102180005A604032D96811420AD1084A05481A6398
:10219000FC22596BD2000A435A63FFF723FED5E7AE
:1021A000D969EFE700A0004030090020FFFF0100DF
:1021B000002804D0012801D1024B19607047024B5E
:1021C000FBE7C0460C000840080008400121034A14
:1021D00013688B43184310607047C04600000840E6
:1021E000034B002802D001221A6270471862FCE7F4
:1021F0000000084042780378002A01D002221343ED
:102200008278002A01D004221343014A13607047E8
:102210000000084070B504001500081E02D10548F2
:10222000FFF70CFB6900013801F06AF800026061F9
:1022300070BDC046408104000D4B0E4AC3600023B0
:10224000036042600C4A83604361C36482640B4A4A
:102250004365904202D00A49884200D103658365F4
:10226000904202D0064B984201D10023C3657047CB
:10227000AA0E000005100000F91F000000C0004079
:1022800000C4004070B50D000400FFF7D5FF012128
:102290002A8A23681143AA7B0B43501E8241920273
:1022A000134323602B7D2268591E8B415B07134328
:1022B0002360AB7C002B03D01023EA7C1343A3657F
:1022C00080232A7B5B0113436360AA68696820004E
:1022D000FFF7A0FF6B7B002B01D01023E3606B7D29
:1022E000002B04D0802322685B02134323602B78E9
:1022F000E36070BD402302691A42FCD0416370471D
:10230000402302691A42FCD0C163704702210C4A83
:102310000C4B51605960013991615A6A0A4B0B4864
:10232000197889000A50197809488900095891429A
:1023300002D21B789B001A500122064B1A7070477C
:1023400000000140000401407C0900205C090020DD
:102350003C0900207D090020054B8000C258C1586F
:10236000044B8908C358501A834280414042704749
:102370003C0900205C09002070B5184800F0C3F843
:1023800000230125164C23702378072B03D913480B
:1023900000F0B4F870BD2378124AD35C002B04D14E
:1023A00023780133DBB22370EEE721780B48C9B202
:1023B00000F09EF800230C480C490D4A43624B6222
:1023C0001370456004204D600A491378002BE7D153
:1023D0000B6983430B6130BFF7E7C0460010004034
:1023E0007C09002004480000000001400004014076
:1023F0007D09002000ED00E030B587B001AC22007F
:102400001B4B23CB23C203CB03C201211948FFF787
:1024100021F901211848FFF71DF901211748FFF79D
:1024200019F92023164A1748516C0B4353640121B4
:10243000FFF710F99022144B12051A600A22DA6194
:10244000093ADA6000225A62104B114A21001A60E0
:10245000104A1148DA61114A1A648122104B520461
:102460001A6100F021F804220E4B1A6007B030BD4B
:10247000F047000040810400000204000012040044
:1024800000800C4000620400000001400004014094
:102490000000010AFFFF0000001000400100100AC8
:1024A00000C00C4000E100E030B50B7A4C7A1B0212
:1024B000240123434C684D78240623430C78AD0750
:1024C000E4072C43CA68234303608B7A1402074A4B
:1024D0001B0722431343CA7A1204134343600B7C45
:1024E000012102688A431343036030BDB00000013C
:1024F00007224368934319434160704701220368F0
:1025000093430360704701230268134303607047DD
:1025100000230B707047000030B50022104C416161
:102520002368934209D12060836014E0491B9D68B1
:1025300041611A00002D0FD02B005D698D42F5D945
:10254000002DF3D0002A09D090608360002B02D0C8
:102550005A69511A596130BD2B00F5E72060F4E744
:102560009009002010B500F00FFA094B094A1968CC
:10257000002906D01368C41A4B69A34203D31B1B5E
:102580004B61106003E0C01A002310604B6110BD66
:10259000900900208009002010B5064B02201B681E
:1025A0005C69054B1B68E41800F0FEF9200000F0A0
:1025B00025FA10BD900900208009002070B50400A4
:1025C000160004AA0D0002CA2661107806AA20711E
:1025D000002012882160A060E360E280854207D17C
:1025E0006561834201D020009847002E12D035004B
:1025F000FFF7AEFA0600FFF7B5FF29002000FFF74E
:102600008BFF054B1B68A34201D1FFF7C5FF3000CC
:10261000FFF7A2FA002070BD9009002010B500213C
:1026200003000E4C2268002A11D09A420CD19A68FD
:10263000002910D08A609A68101E0BD05B6951691E
:102640000020CB18536105E011009268EBE70220EF
:10265000002BECD010BD2260EDE7C04690090020B1
:1026600070B5FFF775FA114D06002C78002C18D1C3
:102670000F4B1C600F4B1C600F4B1C8000F05CF973
:10268000012000F091F900F0E7F90C4B020018600E
:102690000B4923000B4800F0C7FF0B4B18600123C8
:1026A0002B703000FFF758FA002070BD7E09002023
:1026B0009009002080090020880900208C09002052
:1026C000E703000018FCFFFF8409002070B5050037
:1026D0000C002220002D10D000290ED000230B70FA
:1026E000FFF736FA0121084B1B68002B02D0227835
:1026F000002A03D0FFF730FA002070BD9D4201D1BF
:102700002170F2E79B68F0E790090020F0B58BB0EC
:102710001725059310AB1B780400069311AB1B889B
:102720000E00079304ABED18002317002B70222036
:102730009C4212D029002000FFF7C8FF2A7803200E
:10274000002A0AD1079B31000293069B20000193C7
:10275000059B00933B00FFF731FF0BB0F0BDF0B5D8
:102760008BB01725059310AB1B780400069311ABB3
:102770001B880E00079304ABED18002317002B7085
:1027800022209C4213D029002000FFF79FFF2B78C6
:102790000220002B0BD1079B32000293069B3100D5
:1027A0000193059B200000933B00FFF707FF0BB050
:1027B000F0BD0000014B18687047C0468C0900202E
:1027C00010B5FA21034B89001B68584300F098FDAF
:1027D000013010BD8C09002010B58AB00F240123F0
:1027E0006C442370FFF7ECFF00230100019300937A
:1027F000054A230004A8FFF789FF002802D12378A7
:10280000002BFCD10AB010BD1125000010B50B4BF8
:102810000C0019680200212091420DD3084B186862
:102820000023190000F020FFFA220023920000F09C
:10283000FBFE01302060002010BDC046840900204E
:102840008C090020F7B50400C3070CD5374A13885C
:1028500001339BB21380FFF785FE354B1B68002BBD
:1028600001D0FFF799FEA3071AD500F08DF8314F7C
:1028700005003B68C31A0093FFF76AF906002C4B6A
:102880001C68002C4ED06369009A934209D9009AC3
:102890003D609B1A6361FFF77FFE3000FFF75CF934
:1028A000F7BD2300009A3D605969914209D820790B
:1028B00084461879844500D91C009B68521A002B65
:1028C000F2D13000FFF748F9636901930023636197
:1028D000FFF73EF906002000FFF7A0FE3000FFF7EB
:1028E0003BF92369002B09D0FFF732F90600216973
:1028F0002000FFF711FE3000FFF72EF9E368002BF0
:1029000002D021682000984700F03EF8019B0400A7
:102910005D19009B5D1B43190093FFF719F9250012
:102920000600ACE7022000F057F8B6E7880900205F
:10293000900900208009002013B5104C01212000CF
:10294000FEF712FE01212000FEF784FE0024012381
:1029500001A8037084704470FFF74CFC0721084BFA
:10296000DA698A43DA61802299615C607A31054BC9
:102970005201FF315A501A6013BDC0468006120042
:102980000000084000E100E0054A064B50681B7853
:102990001169C90701D5506801331B0618437047F8
:1029A0000000084098090020012202401300084955
:1029B000800709D5074B1878002803D004208861C8
:1029C0000020187004231343CA691343CB61704776
:1029D0000000084020000020012302001A40810767
:1029E00003D504210A4303490B700349CB69934380
:1029F000CB617047200000200000084010B50400A3
:102A0000FFF7C2FF114B1A69114B520706D41A681F
:102A1000121A022A02D81A68824212D1221A012AF4
:102A200000D8841C1C601A68101A0A4A904209D8FF
:102A3000196801200902090AFFF7BAFB0220FFF713
:102A4000B3FF10BD0220FFF7C7FFFAE70000084000
:102A500094090020FFFFFF0010B50248FEF7EEFECC
:102A600010BDC04680061200F8B5FFF771F80700E8
:102A70000120174E00243569054219D08022154BDC
:102A800052041C782406A418624254411A78E4B215
:102A90001218D2B21A70104A126819780F4B090630
:102AA000511A994204D8FFF783FB0220FFF77CFFFD
:102AB0006B0701D502231C4305231D40B561002C83
:102AC00002D02000FFF7BEFE3800FFF745F8F8BD42
:102AD000000008409809002094090020FFFFFF0033
:102AE0000023052902D8074B8900CB58002A04D0BF
:102AF000012A02D1834202D05B42180070470023B2
:102B0000FBE7C04620540000F0B585B00D0004007E
:102B10003E49280000F0F4FB3D4A0300944663441C
:102B200001903C491800029300F070FC0F003A49F4
:102B3000380000F0E5FB3949C619380000F0E0FB29
:102B40003749361A380000F0DBFB6E21361AFF31A8
:102B5000300000F0D5FB2F490390029800F0D0FB25
:102B6000C8235B005843039B2E49C31830000293CF
:102B700000F0C6FB2949C719300000F0C1FB6E23E5
:102B80003F1A0520039AFF335343FF1A78439921D4
:102B9000023000F0B5FB0600992070437B1C023028
:102BA00005211F0000F0ACFB03233F1A092E00D9BA
:102BB0000C3B28003C219E1900F028FC28002160D5
:102BC0003C2100F09DFB3C2100F020FC6160E121F4
:102BD0002800090100F094FB182100F017FC0223E3
:102BE0000020114AB34240419446029BA160C018A4
:102BF000019B60616344E76026611800072100F0D3
:102C000005FC20000631A16105B0F0BD8051010036
:102C10006CFA0A00B13A0200AC8E0000B405000064
:102C2000B03A0200948E000071FA0A0007B5012242
:102C300000201100FEF78EFE01211248FEF70AFD6A
:102C400002211148FEF7BCFE01211048FEF702FDEB
:102C50000F490020FFF7ACFA02230E4A01A8D16900
:102C60000B43D361C02180220B4B520149005A50C3
:102C70001A600A49032200F029FE01A8FFF7BAFAF8
:102C800007BDC046D0233E0002001E008006120091
:102C9000FF7F00000000084000E100E01C5400003D
:102CA00010B5FDF7F5FA002800D0FEE7FEF764F84E
:102CB000002800D0FEE7074C2000FEF74BF9002863
:102CC00000D0FEE7044B606004492000A360FEF7DB
:102CD000A4FA10BD9C090020FFFFFF008C410000FA
:102CE00073B5114C060020000D00FEF7E0F8002D32
:102CF0000CD00023102201930C49733300936E3BD8
:102D00002000FEF747FAFEF773F873BD0523002E87
:102D100004D10196009320220549F1E70195009323
:102D200020220449ECE7C0469C0900206D540000B5
:102D30007A5400009A540000F0B5A1B05C4C0A909F
:102D400020001D001600FEF7B2F8002D0DD0002364
:102D50000C220193574978330093733B2000FEF710
:102D600019FAFEF745F821B0F0BD31000CA8FFF7C5
:102D7000CBFE0E9B504907930F9B20000893109B9E
:102D80000C9F09930D9EFEF748FA0A21079800F060
:102D9000B7FA0A210B90380000F038FB3800049194
:102DA0000A2100F0ADFA0A210390300000F02EFB5A
:102DB000300002910A2100F0A3FA0A21019007983D
:102DC00000F024FB322600910B9B3C4A322113A8D1
:102DD00000F08EFD19220523009613A9019520000D
:102DE000FEF7D8F90A21089800F08AFA119B07002B
:102DF0000A210998039300F009FB099802910A211E
:102E000000F07EFA0A210190089800F0FFFA3B00DA
:102E100000912B4A310013A800F06AFD4B231922C0
:102E2000009313A9463B01952000FEF7B3F9254B0B
:102E30005F2201931023052100932000FEF7EBF899
:102E4000FA210A98890000F0E5FA6421060000F0F2
:102E5000C7FB08000A2100F0DDFA1B49070030001B
:102E600000F0BEFB0800194900F0D4FA174902909F
:102E7000300000F0B5FB0800FA21890000F0CAFA22
:102E8000FA2101908900300000F0AAFB08006421BB
:102E900000F0C0FA3B0000900D4A0A2113A800F090
:102EA00027FD5F23019500931922413B13A955E7A4
:102EB0009C090020385400000C48000045540000D4
:102EC00054540000B9540000A086010010270000EF
:102ED000615400000122014B1A707047210000204C
:102EE000044A1368013313600123034A1370034A31
:102EF00013707047CC090020210000202200002020
:102F000010B5034A034B10681B68984710BDC046B4
:102F1000D4090020D809002010B5194B1B68002BDC
:102F200018D0FFF729FA0320FFF716FA002812D06D
:102F30000420FFF711FA021E0DD1124B124C134957
:102F40001868236809781818C9B2FFF7C9FD236803
:102F5000C018206010BD0420FFF7FEF90028F9D04A
:102F60000320FFF7F9F90028F4D1084A054B064C75
:102F70001B6820681178C018C9B20122E5E7C04675
:102F8000DC090020D0090020E0090020E809002029
:102F900030B585B00400080003A91500FFF736FC22
:102FA000002807D10190009003002A000399200017
:102FB000FFF7D5FB05B030BDF0B591B00AA90A0006
:102FC000714B13CB13C213CB13C201226F4B1A6484
:102FD0006F4BDB6C1B0E812B07D86E4B6E4A6F4913
:102FE0001A606F4A13680B40136002216D48FEF7A8
:102FF000E7FC01216C48FEF72DFBFFF717FE0121CE
:103000006A48FEF727FB0123042208210220FEF76D
:1030100053FE0222012310000921FEF74DFE012577
:10302000092200231100022001950095FEF708FEF9
:1030300002222B0010000A21FEF73EFE0A22002386
:103040001100022001950095FEF7FAFD00240223ED
:10305000574A05AF1360574E1D330922210007A8B8
:10306000FB703C707C70BC703C717C7100F037FC74
:1030700029005148FEF7EEFA39003000FEF77AF9E0
:10308000042002AB58750920187607AB19003000F0
:10309000FEF720F9494BC0227363736944492B43FF
:1030A0007361102352008B500B60FFF7D9FAFFF7C2
:1030B000F7FD0AA8FDF7D6FAFFF79EF9404B22006C
:1030C00080210A981C70FDF779FB2100FFF708FEAC
:1030D000FA20C000FFF780FBFA213A4AC9003A48BB
:1030E000FFF756FF394A64213948FFF751FFFA21AB
:1030F000384A89003848FFF74BFF2000FEF772FD81
:1031000004230393354F3B78002B1DD00023344A12
:103110003449137001330A9873601378002B2AD056
:10312000314B324A8021746AFDF71AFB0023AF222B
:103130003B7012019D4202D0A2425B41DDB20023EE
:10314000A2425B412C001D00294F3B78002BD9D0B7
:10315000284B254A1968254B1068002911D1196898
:10316000254B264A1B681268D2182300FFF7E4FD9E
:1031700000233B70C6E70B69039CA3430B6130BF80
:10318000CBE719681E4BECE7DC54000000000C4054
:10319000B081E00F18600C4005000004FFFFFFFE47
:1031A000E4800C4002001E00D0233E000082040098
:1031B00000E100E00020004000A204007C1F0000AD
:1031C000E8090020D52E0000240A0020192F000055
:1031D000540A0020E12E00000C0A002021000020EB
:1031E000C809002000ED00E0EC090020E4090020FF
:1031F00022000020DC090020CC090020E00900208A
:10320000D0090020034B9A691A620122024B1A70FE
:103210007047C04600200040C809002030B5134B5D
:103220009C69A2050CD5124D1C622868114A1249EE
:10323000002813D112680A60104A107001222A6017
:1032400062050AD51C620A4B1B68012B05D10B4A8B
:103250001378052B06D10023137030BD0968116067
:103260000022ECE713780133DBB2F5E7FC600040A5
:10327000DC090020CC090020D0090020E80900204A
:1032800010B5FFF7CBFF10BD13B51400094B186044
:10329000094B1960FFF78EFA210000F031F8002485
:1032A0000100019400942300044A0548FFF757FAEF
:1032B000200016BDD8090020D4090020012F0000ED
:1032C0003C0A002002B471464908490009564900E9
:1032D0008E4402BC7047C04602B47146490849009A
:1032E000095C49008E4402BC7047C04603B4714675
:1032F000490840004900095A49008E4403BC704700
:10330000002243088B4274D303098B425FD3030A24
:103310008B4244D3030B8B4228D3030C8B420DD337
:10332000FF22090212BA030C8B4202D312120902C5
:1033300065D0030B8B4219D300E0090AC30B8B4203
:1033400001D3CB03C01A5241830B8B4201D38B03B1
:10335000C01A5241430B8B4201D34B03C01A524156
:10336000030B8B4201D30B03C01A5241C30A8B4299
:1033700001D3CB02C01A5241830A8B4201D38B0284
:10338000C01A5241430A8B4201D34B02C01A524128
:10339000030A8B4201D30B02C01A5241CDD2C3099A
:1033A0008B4201D3CB01C01A524183098B4201D316
:1033B0008B01C01A524143098B4201D34B01C01A01
:1033C000524103098B4201D30B01C01A5241C30879
:1033D0008B4201D3CB00C01A524183088B4201D3E8
:1033E0008B00C01A524143088B4201D34B00C01AD4
:1033F0005241411A00D20146524110467047FFE740
:1034000001B5002000F0F0F802BDC0460029F7D059
:1034100076E7704703460B437FD4002243088B4274
:1034200074D303098B425FD3030A8B4244D3030B4B
:103430008B4228D3030C8B420DD3FF22090212BA10
:10344000030C8B4202D31212090265D0030B8B428C
:1034500019D300E0090AC30B8B4201D3CB03C01A76
:103460005241830B8B4201D38B03C01A5241430B51
:103470008B4201D34B03C01A5241030B8B4201D341
:103480000B03C01A5241C30A8B4201D3CB02C01AAC
:103490005241830A8B4201D38B02C01A5241430A24
:1034A0008B4201D34B02C01A5241030A8B4201D313
:1034B0000B02C01A5241CDD2C3098B4201D3CB01BA
:1034C000C01A524183098B4201D38B01C01A524169
:1034D00043098B4201D34B01C01A524103098B426D
:1034E00001D30B01C01A5241C3088B4201D3CB0058
:1034F000C01A524183088B4201D38B00C01A52413B
:1035000043088B4201D34B00C01A5241411A00D2EA
:1035100001465241104670475DE0CA0F00D0494253
:10352000031000D34042534000229C4603098B42C3
:103530002DD3030A8B4212D3FC22890112BA030A4B
:103540008B420CD3890192118B4208D389019211CD
:103550008B4204D389013AD0921100E08909C30952
:103560008B4201D3CB01C01A524183098B4201D354
:103570008B01C01A524143098B4201D34B01C01A3F
:10358000524103098B4201D30B01C01A5241C308B7
:103590008B4201D3CB00C01A524183088B4201D326
:1035A0008B00C01A5241D9D243088B4201D34B0041
:1035B000C01A5241411A00D20146634652415B1083
:1035C000104601D34042002B00D549427047634664
:1035D0005B1000D3404201B5002000F005F802BDA9
:1035E0000029F8D016E770477047C0461C21012318
:1035F0001B04984201D3000C10391B0A984201D3D6
:10360000000A08391B09984201D30009043902A2B3
:10361000105C40187047C04604030202010101011A
:103620000000000000000000002B11D1002A0FD183
:10363000002900D1002802D00021C943081C07B48A
:10364000024802A14018029003BDC0469DFFFFFF43
:1036500003B4684601B5029800F030F8019B9E461D
:1036600002B00CBC7047C046F0B5CE4647461504C4
:103670002D0C2E0080B50704140C3F0C9946030C4A
:103680007E435D43674363437F19340CE4199C46D2
:10369000A54203D980235B029846C4444B4643436A
:1036A0005143250C36046544360C2404A4195B19D7
:1036B000591820000CBC90469946F0BDF0B54F4615
:1036C0004646D646C0B5040082B00D0091469846E5
:1036D0008B422FD82CD04146484600F0B1F8290043
:1036E0000600200000F0ACF8331A9C46203B9A46B6
:1036F00000D576E04B46524693401F004B4662464B
:1037000093401E00AF4228D825D05346A41BBD418C
:10371000002B00DA7BE000220023009201930123BA
:10372000524693400193012362469340009318E070
:103730008242D0D900220023009201930A9B002BE1
:1037400001D01C605D600098019902B01CBC9046DD
:103750009946A246F0BDA342D7D900220023009289
:1037600001936346002BE9D0FB0798464146720857
:103770000A437B0866460EE0AB4201D1A2420CD858
:10378000A41A9D41012024196D410021013E2418F5
:103790004D41002E06D0AB42EED9013E24196D41B9
:1037A000002EF8D100980199534600196941002B69
:1037B00023DB2B005246D3402A006446E2401C0023
:1037C00053461500002B2DDB26005746BE40330024
:1037D00026006746BE403200801A99410090019150
:1037E000ACE7624620239B1A4A46DA406146130042
:1037F00042468A4017001F4380E7624620239B1AF7
:103800002A0066469A402300F3401343D4E76246F9
:10381000202300219B1A0022009101920122DA400C
:10382000019280E72023624626009B1ADE402F008B
:10383000B0466646B74046463B003343C8E7C046FD
:1038400010B5002903D1FFF7D1FE203002E0081C9B
:10385000FFF7CCFE10BDC046084B10B50400002B8E
:1038600002D0002100E000BF054B1868836A002BDE
:1038700000D09847200000F059FCC046000000002E
:10388000F454000070B500260C4D0D4C641BA410C0
:10389000A64209D1002600F04BFC0A4D0A4C641BDD
:1038A000A410A64205D170BDB300EB58984701366D
:1038B000EEE7B300EB5898470136F2E7900000209E
:1038C000900000209000002094000020002310B5FC
:1038D0009A4200D110BDCC5CC4540133F8E7030018
:1038E0001218934200D1704719700133F9E70000B4
:1038F0000CB430B5164B9DB00C1E1D6808DA8B2336
:1039000001202B6040421DB030BC08BC02B01847FB
:10391000822302A99B008B810023029008619C42B4
:1039200000D0631E8B604B6101235B42CB81209AE8
:1039300021AB2800019300F06FF8431C01DA8B23C0
:103940002B60002CDFD00023029A1370DBE7C04607
:1039500024000020F0B58E6885B007000C000392AB
:1039600001939E423CD890238A89DB001A4234D0CE
:103970000325096923685B1A0293636902985D4312
:10398000EB0F5D19019B6D1001331B18AB4200D981
:103990001D00530532D52900380000F019FB061E22
:1039A00009D10C233B6040230120A28940421343EC
:1039B000A38105B0F0BD029A2169FFF787FFA389B3
:1039C000144A1A4080231343A381029B2661F618F0
:1039D00026606561019EED1AA560019B9E4200D99B
:1039E000019E32000399206800F095FAA368002038
:1039F0009B1BA36023689E192660DAE72A00380023
:103A000000F044FB061EE0D12169380000F096FA70
:103A1000C7E7C0467FFBFFFFF0B59FB0029005935C
:103A20008B890F0016001B0611D50B69002B0ED1D8
:103A3000402100F0CDFA38603861002805D10C2310
:103A4000029A013813601FB0F0BD40237B61002350
:103A500006AC6361203363761033A37635002B7890
:103A6000002B01D0252B46D1AB1B04930CD0320088
:103A700039000298FFF76EFF431C00D1AEE0626987
:103A8000049B9446634463612B78002B00D1A5E02E
:103A9000012200235242626002A9543252186E1C65
:103AA0002360E360A3601370A36531780522544856
:103AB00000F026FA751C00281FD12268D30604D511
:103AC000532302A95B1820211970130704D553232F
:103AD00002A95B182B21197033782A2B16D03500D8
:103AE00000210A20E3682A786E1C303A092A4ED950
:103AF000002918D010E00135B1E7414B2268C01A07
:103B000001238340134323602E00CEE7059B191D3C
:103B10001B680591002B01DB099304E05B42E36025
:103B20000223134323602B782E2B0AD16B782A2B88
:103B300035D1059B02351A1D1B680592002B2BDB26
:103B40000793304E29780322300000F0D9F900287D
:103B500006D04023801B8340226801351343236035
:103B60002978062228486E1C217600F0C9F9002821
:103B70003CD0264B002B25D10722059B07339343CE
:103B8000083305936369039A9B18636166E74343AF
:103B900001219B183500A6E701235B42D0E70023F3
:103BA0000A201A000135636029786E1C3039092912
:103BB00003D9002BC5D00792C3E742430123521813
:103BC0003500F1E705AB00933A00114B2100029854
:103BD00000E000BF0390039B0133D3D1BB890B9856
:103BE0005B0600D42FE7012040422CE705AB009391
:103BF0003A00074B2100029800F07AF8EAE7C04645
:103C0000F8540000FE5400000255000000000000BF
:103C100055390000F7B5150001938A680B690090CB
:103C20000C00934200DA130022002B60433212781A
:103C3000002A01D001332B6023689B0602D52B6834
:103C400002332B60062723681F4027D0230043330D
:103C50001B785A1E93412268920630D422000199A3
:103C600043320098089EB047431C25D006232068A5
:103C70002A68E16803400025042B03D18D1AEB4329
:103C8000DB171D40A3682269934201DD9B1AED18E2
:103C90000027BD4220D1002010E00137E3682A68E8
:103CA0009B1ABB42D2DD22000123193201990098F0
:103CB000089EB047431CF0D101204042FEBD302099
:103CC000E1184331087021005A1C45310978A218C7
:103CD000433202331170C1E7220001231A320199E5
:103CE0000098089EB047431CE6D00137D1E700009A
:103CF000F0B589B004920A00433205930390029212
:103D00000A7E0C000E9B6E2A00D186E01FD8632A23
:103D100033D008D8002A00D18CE0582A4DD0250095
:103D200042352A7030E0642A01D0692AF7D1196837
:103D300025680A1D280629D508681A60002803DAB4
:103D40002D23029A404213706B4E0A274FE0732ACC
:103D500074D008D86F2A1FD0702AE0D120220968B9
:103D60000A43226003E0752A16D0782AD7D12200B0
:103D7000782145321170614E22E025001A684235E3
:103D8000111D196013682B70012365E008681A6023
:103D90006906D3D500B2D1E719682568081D1860F7
:103DA00008682E0605D5544E08276F2A1BD00A270F
:103DB00019E06D06F7D580B2F5E745314E4E0A7031
:103DC00018682268011D00681960150621D5D307FF
:103DD00002D520231A4322601027002803D1202374
:103DE00022689A4322602300002243331A706368DA
:103DF000A360002B58DB0422216891432160002836
:103E000054D1029D002B5AD02500337842352B70B7
:103E100055E05506DBD580B2D9E71A680D68101D4C
:103E20004969186013682E0601D5196002E06D0615
:103E3000FBD519800023029D23614FE01A68111DF4
:103E40001960156800216268280000F059F8002800
:103E500001D0401B6060636823610023029A1370E5
:103E60003CE023692A0004990398059DA847431C58
:103E70003ED023689B0715D4079BE068984239DA47
:103E8000180037E022000123193204990398059E97
:103E9000B047431C2CD00135E368079A9B1AAB420C
:103EA000F0DCE9E70025F7E70028ADD0029D3900F6
:103EB000FFF7ACFA735C013D2B700028F7D1082F97
:103EC00009D12368DB0706D563682269934202DCC7
:103ED0003023013D2B70029B5B1B2361059B07AACE
:103EE00000932100049B0398FFF794FE431CB8D174
:103EF0000120404209B0F0BD095500001A550000EC
:103F0000C9B28218904201D10020704703788B42D9
:103F1000FBD00130F6E710B5884202D98B189842E1
:103F200003D3002307E08B5C8354013AFBD210BD1E
:103F3000CC5CC45401339A42FAD1F8E770B505005D
:103F4000002910D00C1F2368002B00DAE418280089
:103F500000F0D4F81D4A1368002B05D1636014608B
:103F6000280000F0CCF870BDA34209D92168601880
:103F70008342F3D118685B6841182160EEE71300B3
:103F80005A68002A01D0A242F9D919685818A042EB
:103F90000BD120680918581819608242E0D11068C6
:103FA0005268411819605A60DAE7A04202D90C231E
:103FB0002B60D5E721686018824203D110685268EF
:103FC0004118216062605C60CAE7C046F0090020C9
:103FD000032370B5CD1C9D43083506000C2D1ED261
:103FE0000C25A9421DD8300000F088F8254A146835
:103FF0002100002919D1244C2368002B03D1300063
:1040000000F06AF820602900300000F065F8431CD9
:104010002BD10C233000336000F071F803E0002D49
:10402000DFDA0C233360002070BD0B685B1B19D4F2
:104030000B2B03D90B60CC18256003E04B688C4236
:104040000DD11360300000F05AF8200007220B3029
:10405000231D9043C31AE7D05A42E250E4E763605D
:104060000C00EFE70C004968C3E70323C41C9C4322
:10407000A042E1D0211A300000F02EF8431CDBD121
:10408000C7E7C046F0090020F4090020F8B5070092
:104090000D001600002905D11100FFF799FF04005B
:1040A0002000F8BD002A03D1FFF748FF3400F7E7EE
:1040B00000F026F82C00B042F2D231003800FFF7B1
:1040C00087FF041EECD029003200FFF7FFFB290018
:1040D0003800FFF733FFE3E7002370B5064C050017
:1040E0000800236000F014F8431C03D12368002B60
:1040F00000D02B6070BDC0466C0A0020704770472E
:104100000B1F1B68181F002B01DA0B58C0187047D3
:10411000044A1368002B00D1034B181810601800D4
:104120007047C046F8090020700A0020FEE7C0462C
:10413000F8B5C046F8BC08BC9E467047F8B5C04606
:10414000F8BC08BC9E46704701B40248844601BCD6
:10415000604700BF890000205368617270204C5393
:1041600030313342374448303320233100000000DF
:10417000050000000000000040420F0005010000A3
:104180000000000000000000010001009C41000050
:1041900020030164060802000100000000040A0A6E
:1041A0000403060608020000000000000E040E1FB3
:1041B000081F0C1F0E0E00001000010E0E0E0F0E39
:1041C000071F1F0E110E1C110111110E0F0E0F1ED5
:1041D0001F11111111111F0E000E04000200010029
:1041E00010000C000104080106000000000000009F
:1041F000020000000000000C0406000000000000A7
:1042000000040A0A1E130904040404040000000048
:10421000110611080C010210111106060800021106
:10422000101111110901011111040809011B1111CB
:1042300011111101041111111111100200080A00CD
:10424000040001001000121E010000010400000023
:10425000000000000200000000000002040802004C
:104260000000000000040A1F0108050202081504EE
:1042700000000010190410040A0F010811110606AD
:10428000041F04101011110111010101110408058E
:104290000115131111111101041111110A11080254
:1042A00001081100080E0D0E160E02110D060C0964
:1042B000040B0D0E0F160D0E0711111111111F0217
:1042C00004081500000000000004000A0E040200AB
:1042D00002080E1F001F00081504080809100F042B
:1042E0000E1E00000200080816110F01110F0F1D0D
:1042F0001F040803011515110F110F0E04111115DC
:10430000040A040202080000001013011911071129
:1043100013040805041513111119130102111111C9
:104320000A11080104100800000000000000001F2E
:1043300010021500020815040600000413040410FE
:104340001F10110211100606041F0404151F11018D
:1043500011010111110408050111191101150510B0
:10436000041111150A04020204080000001E1101C4
:10437000111F021E11040803041511110F1E010E56
:1043800002111115041E04020408000000000000C0
:104390000000000A0F1909000404040404000602C6
:1043A000110402110811110211080604080002008C
:1043B000151111110901011111040909011111113E
:1043C0000109091004110A1511040102080800006E
:1043D000001111111101021011040905041111112C
:1043E0000110011012190A150A1002020408000037
:1043F000000000000004000A041816000802000073
:10440000020006010E0E1F0E080E0E020E0600021E
:10441000100001040E110F0E071F010E110E0611E0
:104420001F11110E0116110F040E040A11041F0EA4
:10443000100E001F001E0F0E1E0E020E110E06099A
:104440000E11110E0110010F0C16040A110E1F0C93
:104450000406000000000000000000000000000052
:10446000000000000000000000000000000000004C
:10447000000000000000000000000000000000003C
:10448000000000000000000000000000000000002C
:10449000000000000000000000000000000000001C
:1044A000000000000000000000000000000000000C
:1044B000000000000000000000000000CC440000EC
:1044C00020030164080802000100000000186C6C61
:1044D00010CE3808600C0000000000007C307C7CAE
:1044E000C6FE7CFE7C7C000070001C7C7C7C7E7C9C
:1044F0007EFEFE7CC63C78C606C6C67C7E7C7E7C84
:104500007EC6C6C6C6C6FE7C007C10000C00060037
:1045100060003800060000060C00000000000000EB
:10452000000000000000003018188C00000000009F
:1045300000186CFEFC6A2C1830186C18000000C0C3
:10454000C638C6C6C606C6C0C6C61818387C38C621
:10455000C6C6C6C6C60606C6C618306606EECEC6AF
:10456000C6C6C6C618C6C6C6C6C6C00C06603800D3
:104570000C00060060000C00061830060C0000005D
:104580000000000018000000000000181830D600DD
:1045900000000000001848FE162E2C18183038189D
:1045A00000000060C63060C0C6060660C6C61818A7
:1045B0001C7C70C6F6C6C606C6060606C618303689
:1045C00006FEDEC6C6C6C60618C6C6C66CC6600CE3
:1045D0000C606C00043C3E3C7C3C3C3C3E00006675
:1045E0000C6E3E3C3E3C363C186666C666667E18DF
:1045F00018306200000000000018006C7C10DC0025
:104600001830FE7E1C7E0030C6303070FE7E7E305C
:104610007CFC00000E00E070F6FE7E06C61E1EF654
:10462000FE18301E06D6F6C67EC67E7C18C6C6D6D6
:1046300038FC300C1860C6000060660666660C66C2
:10464000661830360CD6666666666E067C6666C68A
:104650003C66300C0060000000000000000000FE1E
:10466000D0E866001830387E1C7E1C18C63018C092
:10467000C0C0C618C6C018181C7C703076C6C606E6
:10468000C60606C6C618303606C6E6C606B6C6C094
:1046900018C6C6FE6CC0180C30600000007C6606B0
:1046A000667E0C7C6618301E0CD666663E56063C4E
:1046B000186666D6187C1818183000000000000034
:1046C000001800FE7EAC660030186C1818001C0C38
:1046D000C6300CC6C0C6C60CC6C61818387C380012
:1046E00006C6C6C6C60606C6C618366606C6C6C608
:1046F0000666C6C618C66CEEC6C00C0C606000FE2E
:104700000066660666060C60661836360CC6666677
:104710000626066018663CD63C600C18183000006F
:10472000000000000018006C10E6DC00600C0018AF
:104730000C001C067C78FE7CC07C7C067C7C000C1B
:1047400070001C307CC67E7C7EFE06FCC63C1CC60F
:10475000FEC6C67C06DCC67C187C38C6C67EFE7CDF
:10476000C07C00FE007C3E3C7C3C0C3E66701C66BF
:1047700038C6663C065C063E707C18FC663E7E30A1
:1047800018180000000000000000000000000000F9
:104790000000000000000000000000000000000019
:1047A0000000000000000000000000000000000009
:1047B00000000000000000000000000000000000F9
:1047C00000000000000000000000000000000000E9
:1047D00000000000000000000000000000000000D9
:1047E000000000000000000000000000080911089F
:1047F0000000000007000000070503003D00000066
:104800000100000000000001010000001C48000041
:10481000000C02600C1002000100000000003F00CC
:10482000FF03FC0FCF03FF03FF033F00CF00F300A4
:10483000F003F003000000000000F003FF033F005E
:10484000FF03FF03FF03FF03FF03FF03FF03FF0358
:1048500000000000F00300003F00FF03FF0FFF0314
:10486000FF03FF03FF00FF03FF03FF03FF033F00FE
:10487000F003FF033F00FF0F3F0FFF03FF03FF03A2
:10488000FF03FF03FF03FF03FF030F0FFF03FF03FC
:10489000FF03C3003F00C300FC0000003F00FF0314
:1048A000FF03FF03FF00FF03FF03FF03FF033F00BE
:1048B000F003FF033F00FF0F3F0FFF03FF03FF0362
:1048C000FF03FF03FF03FF03FF030F0FFF03FF03BC
:1048D000FF030C033300C300FF0F000000003F0084
:1048E000FF03FC0FCF03FF03FF033F00CF00F300E4
:1048F000F003F003000000000000F003FF033F009E
:10490000FF03FF03FF03FF03FF03FF03FF03FF0397
:1049100000000000F00300003F00FF03FF0FFF0353
:10492000FF03FF03FF00FF03FF03FF03FF033F003D
:10493000F003FF033F00FF0F3F0FFF03FF03FF03E1
:10494000FF03FF03FF03FF03FF030F0FFF03FF033B
:10495000FF03C3003F00C300FC0000003F00FF0353
:10496000FF03FF03FF00FF03FF03FF03FF033F00FD
:10497000F003FF033F00FF0F3F0FFF03FF03FF03A1
:10498000FF03FF03FF03FF03FF030F0FFF03FF03FB
:10499000FF030C033300C300FF0F000000003300CF
:1049A0003303CF0C0303330303033300F300CF00BF
:1049B0003F0F30030000000000003003030333000A
:1049C0000303030333030303030303030303030387
:1049D0003F00FC003C03FF0FF3000303030C030341
:1049E00003030303C303030303030303330333007A
:1049F000300333033300F30CF30C0303030303030B
:104A000003030303030333033303F30C33033303BD
:104A10000303F3003300CF00CF030000F3000303D0
:104A200003030303C3030303030303033303330039
:104A3000300333033300F30CF30C030303030303CA
:104A400003030303030333033303F30C330333037D
:104A50000303CC033300CF00030300000000330046
:104A60003303CF0C0303330303033300F300CF00FE
:104A70003F0F300300000000000030030303330049
:104A800003030303330303030303030303030303C6
:104A90003F00FC003C03FF0FF3000303030C030380
:104AA00003030303C30303030303030333033300B9
:104AB000300333033300F30CF30C0303030303034A
:104AC00003030303030333033303F30C33033303FD
:104AD0000303F3003300CF00CF030000F300030310
:104AE00003030303C3030303030303033303330079
:104AF000300333033300F30CF30C0303030303030A
:104B000003030303030333033303F30C33033303BC
:104B10000303CC033300CF00030300000000330085
:104B200033030300F3033F03330F33003300CC00A0
:104B300033033F0F0000FF0300003C033303330047
:104B40003F033F033303F303F3033F033303330311
:104B50003300CC00CF03030CCF033F03F30C33032C
:104B60003303F3033303F303F303F3033303330098
:104B7000300333033300030CC30C33033303330319
:104B80003303F303CF0333033303F30C3303330350
:104B90003C033300F300CC0033030000CF003303A9
:104BA0003303F3033303F303F303F3033303330058
:104BB000300333033300030CC30C330333033303D9
:104BC0003303F303CF0333033303F30C3303330310
:104BD0003C03CF003300CC0333000000000033005F
:104BE00033030300F3033F03330F33003300CC00E0
:104BF00033033F0F0000FF0300003C033303330087
:104C00003F033F033303F303F3033F033303330350
:104C10003300CC00CF03030CCF033F03F30C33036B
:104C20003303F3033303F303F303F30333033300D7
:104C3000300333033300030CC30C33033303330358
:104C40003303F303CF0333033303F30C330333038F
:104C50003C033300F300CC0033030000CF003303E8
:104C60003303F3033303F303F303F3033303330097
:104C7000300333033300030CC30C33033303330318
:104C80003303F303CF0333033303F30C330333034F
:104C90003C03CF003300CC0333000000000033009E
:104CA000FF03CF0C0303CC00CF033F003300CC0045
:104CB0000F0C0300000003030000CF033303330095
:104CC00003030303030303030303CC03CF0303031F
:104CD0003F00FC00F300FF0F3C030C03330C030305
:104CE00003033300330303030303330303033300DA
:104CF0003F03C3033300F30C330C330303033303C9
:104D000033030303CC0033033303F30CCF03030358
:104D1000CF033300CF03CC00FF030000FC000303EC
:104D20000303330033030303030333030303330099
:104D30003F03C3033300F30C330C33030303330388
:104D400033030303CC0033033303F30CCF03030318
:104D5000CF03F30033003C03FF0F000000003300DB
:104D6000FF03CF0C0303CC00CF033F003300CC0084
:104D70000F0C0300000003030000CF0333033300D4
:104D800003030303030303030303CC03CF0303035E
:104D90003F00FC00F300FF0F3C030C03330C030344
:104DA0000303330033030303030333030303330019
:104DB0003F03C3033300F30C330C33030303330308
:104DC00033030303CC0033033303F30CCF03030398
:104DD000CF033300CF03CC00FF030000FC0003032C
:104DE00003033300330303030303330303033300D9
:104DF0003F03C3033300F30C330C330303033303C8
:104E000033030303CC0033033303F30CCF03030357
:104E1000CF03F30033003C03FF0F000000003F000E
:104E2000000003003F03F303330C00003300CC0009
:104E300033033F0FFC00FF033F00F3003303330055
:104E4000F3033F033F033F033303CC0033033F032C
:104E50003300FC00CF03030CCF03FC03F30F330339
:104E60003303F3033303F303F30333033303330055
:104E700033033303F303F30CF30C3303F303330370
:104E8000C3003F03CC0033033303030C3303CF03CE
:104E9000F30033003C03CC000000000000003303AB
:104EA0003303F3033303F303F30333033303330015
:104EB00033033303F303F30CF30C3303F303330330
:104EC000C3003F03CC0033033303030C3303CF038E
:104ED000F300CF003300CC030000000000003F00CF
:104EE000000003003F03F303330C00003300CC0049
:104EF00033033F0FFC00FF033F00F3003303330095
:104F0000F3033F033F033F033303CC0033033F036B
:104F10003300FC00CF03030CCF03FC03F30F330378
:104F20003303F3033303F303F30333033303330094
:104F300033033303F303F30CF30C3303F3033303AF
:104F4000C3003F03CC0033033303030C3303CF030D
:104F5000F30033003C03CC000000000000003303EA
:104F60003303F3033303F303F30333033303330054
:104F700033033303F303F30CF30C3303F30333036F
:104F8000C3003F03CC0033033303030C3303CF03CD
:104F9000F300CF003300CC0300000000000033001A
:104FA0000000CF0C0303330303030000F300CF0022
:104FB0003F0F3003CF000000330033000303330002
:104FC00003030303300303030303CC0003030303BE
:104FD0003F00CF003C03FF0FF300CC00030C330372
:104FE00003030303C3030303330003033303330047
:104FF000030333030303F30CF30C03033300030332
:1050000033030303CC000303CF03F30C3303CC00BF
:105010000303F3003003CF000000FF0F0000330351
:1050200003030303C3030303330003033303330006
:10503000030333030303F30CF30C030333000303F1
:1050400033030303CC000303CF03F30C3303CC007F
:105050000303CC033300CF00000000000000330046
:105060000000CF0C0303330303030000F300CF0061
:105070003F0F3003CF000000330033000303330041
:1050800003030303300303030303CC0003030303FD
:105090003F00CF003C03FF0FF300CC00030C3303B1
:1050A00003030303C3030303330003033303330086
:1050B000030333030303F30CF30C03033300030371
:1050C00033030303CC000303CF03F30C3303CC00FF
:1050D0000303F3003003CF000000FF0F0000330391
:1050E00003030303C3030303330003033303330046
:1050F000030333030303F30CF30C03033300030331
:1051000033030303CC000303CF03F30C3303CC00BE
:105110000303CC033300CF000000000000003F0079
:105120000000FC0FCF03FF03FF0F0000CF00F300D0
:10513000F003F003F30000003F003F00FF033F00D7
:10514000FF03FF03F003FF03FF03FC00FF03FF0364
:105150000000F300F00300003F00FC00FF0FFF031E
:10516000FF03FF03FF00FF033F00FF03FF033F00B8
:10517000FF03FF03FF030F0FCF0FFF033F00CF031A
:10518000FF03FF03FC00FF03FC00FF0FFF03FC0015
:10519000FF03C300F003C3000000030C0000FF0383
:1051A000FF03FF03FF00FF033F00FF03FF033F0078
:1051B000FF03FF03FF030F0FCF0FFF033F00CF03DA
:1051C000FF03FF03FC00FF03FC00FF0FFF03FC00D5
:1051D000FF030C033300C3000000000000003F0089
:1051E0000000FC0FCF03FF03FF0F0000CF00F30010
:1051F000F003F003F30000003F003F00FF033F0017
:10520000FF03FF03F003FF03FF03FC00FF03FF03A3
:105210000000F300F00300003F00FC00FF0FFF035D
:10522000FF03FF03FF00FF033F00FF03FF033F00F7
:10523000FF03FF03FF030F0FCF0FFF033F00CF0359
:10524000FF03FF03FC00FF03FC00FF0FFF03FC0054
:10525000FF03C300F003C3000000030C0000FF03C2
:10526000FF03FF03FF00FF033F00FF03FF033F00B7
:10527000FF03FF03FF030F0FCF0FFF033F00CF0319
:10528000FF03FF03FC00FF03FC00FF0FFF03FC0014
:10529000FF030C033300C300000000000000000007
:1052A00000000000FC00000000000000FC003F00C7
:1052B000000000003F0000000000000000000000AF
:1052C00000000000000000000000000000000000DE
:1052D00000003F000000000000000000000000008F
:1052E00000000000000000000000000000000000BE
:1052F00000000000000000000000000000000000AE
:10530000000000000000000000000000000000009D
:105310000000FF000000FF000000FF0F0000000081
:10532000000000000000000000000000000000007D
:10533000000000000000000000000000000000006D
:10534000000000000000000000000000000000005D
:105350000000FC033F00FF00000000000000000010
:1053600000000000FC00000000000000FC003F0006
:10537000000000003F0000000000000000000000EE
:10538000000000000000000000000000000000001D
:1053900000003F00000000000000000000000000CE
:1053A00000000000000000000000000000000000FD
:1053B00000000000000000000000000000000000ED
:1053C00000000000000000000000000000000000DD
:1053D0000000FF000000FF000000FF0F00000000C1
:1053E00000000000000000000000000000000000BD
:1053F00000000000000000000000000000000000AD
:10540000000000000000000000000000000000009C
:105410000000FC033F00FF0000000000010001004D
:10542000100E00003C00000001000000805101004F
:10543000008D2700000964384C4F572042415454D6
:105440004552592100256425643A256425643A258E
:1054500064256400256425642F256425642F256454
:1054600000256425642E256425642743004C6F774E
:10547000206261747465727921004661696C6564AB
:1054800020746F206465746563740A736937303201
:10549000312073656E736F722E007369373032314D
:1054A0002073656E736F722072656164792E0A4491
:1054B000656D6F2076312E300000001FF81FF80751
:1054C000800780078007800780078007801FE07FB4
:1054D000F87FF87FF81FE0078000000000A0004080
:1054E000030703060100000000000000486B0100F4
:1054F0000000000028000020232D302B2000686CC5
:105500004C006566674546470030313233343536E6
:10551000373839414243444546003031323334351F
:105520003637383961626364656600000000000048
:08553000ACABFF7F010000009D
:10553800809FD50000366E010080000055040000F1
:1055480000000000E500002000100000006CDC02F4
:1055580001010100280000200000000000000000F8
:105568000000000000000000000000000000000033
:105578000000000000000000000000000000000023
:105588000000000000000000000000000000000013
:105598000000000000000000000000000000000003
:1055A80000000000000000000000000000000000F3
:1055B800000000000000000030BF04231B68704793
:0855C800BD0000009500000089
:0400000300000155A3
:00000001FF
